:020000040800F2
:10000000200A0020A10100088F2C00088525000887
:100010008D2C0008D1020008592E000800000000B5
:10002000000000000000000000000000932C000809
:100030001103000800000000912C0008952C000816
:10004000BB010008BB010008BB010008BB010008A0
:10005000BB010008BB01000813030008BB01000836
:10006000BB010008190300081F030008BB010008BA
:10007000D5020008BB010008BB010008BB01000855
:10008000BB010008BB010008BB010008BB01000860
:10009000BB010008BB010008BB01000825030008E4
:1000A000BB010008B52C0008BB010008BB0100081B
:1000B000BB010008BB010008BB010008BB01000830
:1000C000BB010008BB010008BB010008BB01000820
:1000D000BB010008352E0008BB010008412E0008B6
:1000E000BB010008BB010008BB010008BB01000800
:1000F000BB010008BB010008BB010008BB010008F0
:10010000BB010008BB010008BB010008BB010008DF
:10011000BB010008BB010008BB010008BB010008CF
:10012000BB010008BB010008E1020008ED02000865
:10013000BB010008BB010008BB010008BB010008AF
:10014000BB010008BB010008BB010008BB0100089F
:10015000F9020008BB010008050300084D2E000845
:10016000BB010008BB010008BB010008BB0100087F
:10017000BB010008BB010008BB0100080000000033
:10018000BB010008BB010008DFF810D000F08EF8BA
:1001900000F05CF8004800476D420008200A00208B
:1001A0000648804706480047FEE7FEE7FEE7FEE711
:1001B000FEE7FEE7FEE7FEE7FEE7FEE7992C000814
:1001C000890100082DE9F05F0546002092469B4614
:1001D00088460646814640241BE02846414647465D
:1001E000224600F052F853465A46C01A914110D3A5
:1001F00011461846224600F039F82D1A67EB01081F
:100200004F4622460120002100F030F817EB00098C
:100210004E41201EA4F10104DFDC484631462A4647
:100220004346BDE8F09FD2B201E000F8012B491E21
:10023000FBD270470022F6E710B513460A46044683
:100240001946FFF7F0FF204610BD000070B5054CC1
:10025000054D03E0206820448047241DAC42F9D1BD
:1002600070BD0000984300089C430008202A04DB6E
:10027000203A00FA02F1002070479140C2F12003B9
:1002800020FA03F3194390407047202A04DB203AF8
:1002900021FA02F00021704721FA02F3D040C2F1A6
:1002A000200291400843194670470000064C074D54
:1002B00006E0E06840F0010394E807009847103436
:1002C000AC42F6D3FFF764FF784300089843000878
:1002D000FEE70000014800F017BA0000B00500205A
:1002E000014800F011BA000030020020014800F07F
:1002F0000BBA000090020020014800F005BA00008F
:1003000050050020014800F0FFB90000F004002073
:100310007047012000F052BB082000F04FBB1020B6
:1003200000F04CBB202000F049BB72B6FEE7000095
:1003300078B50024009490F83C20012A19D00122BD
:1003400080F83C200A6807230568092A13D9EE685B
:100350000A3A02EB420293409E43EE600B788A68B1
:100360000A3B03EB43039A400368DD682A43DA60E3
:1003700010E0022078BD2E6902EB420293409E43BA
:100380002E610B788A6803EB43039A4003681D696A
:100390002A431A614A681F23072A13D205686E6B25
:1003A000521E02EB820293409E436E630B790A88D1
:1003B0005B1E92B203EB83039A4003685D6B2A4392
:1003C0005A6327E005680D2A12D22E6BD21F02EB6A
:1003D000820293409E432E630B790A88DB1F92B200
:1003E00003EB83039A4003681D6B2A431A6311E0F1
:1003F000EE6A0D3A02EB820293409E43EE620B7965
:100400000A880D3B92B203EB83039A400368DD6ACE
:100410002A43DA62164B0568144A9D4206D10D68DC
:10042000122D03D1556845F48005556005689D423D
:1004300018D10B68102B01D0112B13D1536843F442
:1004400000035360096810290CD10A490A4A096857
:10045000B1FBF2F101EB8101490000E0491E00917E
:100460000029FBD180F83C40002078BD00230140EA
:10047000002001401C00002040420F000068C06CBA
:10048000704770B504004FF0000503D0206C0026C3
:1004900010B107E0012070BD204600F01DF8666431
:1004A00084F83C60206CC00610D4206C20F4885086
:1004B00040F002002064204603F0AAF86664206C35
:1004C00020F0020040F00100206400E0012584F8E3
:1004D0003C60284670BD000010B586B0044614216B
:1004E0006846FFF7A7FE174B2268002116489A427C
:1004F00009D1016841F480710160006800F48070E6
:10050000059006B010BD114B9A42FAD1026842F430
:1005100080620260006800F4806005900A48143828
:10052000026842F020020260006800F0200005909E
:10053000181500900320CDE901016946044800F038
:1005400049FADEE700200140443802400022014021
:10055000001402402DE9F041044600680D46816810
:100560004FF0000749050BD58068C00508D5206C01
:1005700040F02000206484F83C700120BDE8F08148
:1005800000F00EFB06460FE0681C0DD025B100F010
:1005900007FB801BA84207D9206C40F004002064B0
:1005A00084F83C700320E9E7206800688007EBD5F9
:1005B00021686FF012000860206C40F40070206425
:1005C0002068816811F0405F13D1217E89B9C16A2A
:1005D00011F4700F02D0806840050AD4206C20F41A
:1005E00080702064206CC00403D4206C40F00100B3
:1005F00020640020C2E7000018B50021009190F8A7
:100600003C20012A07D0012280F83C200268936830
:10061000DB0702D011E0022018BD936843F001030C
:1006200093602A4A2A4B1268B2FBF3F202EB4202B1
:1006300000E0521E0092002AFBD102689368DB079B
:1006400041D0036C40F20164A34343F4807303641C
:1006500053685B0505D5036C23F4005343F48053C2
:100660000364036CDB0404D5436C23F0060343648A
:1006700000E0416480F83C1016496FF022031360DB
:1006800049680068CA06144906D088421BD18168AF
:1006900011F0405F13D016E08842F8D00F4A904224
:1006A00003D1D1F80423D206F1D00D4A90420AD1E9
:1006B000D1F8041301F01F011029E8D303E0816889
:1006C00041F080418160002018BD00001C00002026
:1006D00040420F0000230140002001400021014062
:1006E0000022014090F83510022903D08021416595
:1006F00001207047052180F835100068016821F05D
:1007000001010160002070472DE9F84304464FF0D5
:100710000009CDF8009063484FF41651A56D0068AC
:10072000B0FBF1F72E6894F85C10082000FA01F194
:1007300031420FD021680A6852070BD50A6822F0AF
:1007400004020A6094F85C108840A860606D40F074
:100750000100606594F85C104FF0010808FA01F0A0
:10076000304208D021684969090604D5A860606D47
:1007700040F00200606594F85C100420884030422C
:1007800008D021680968890704D5A860606D40F029
:100790000400606594F85C1010208840304218D046
:1007A00021680968090714D5A86020680168490311
:1007B00004D50068000308D5A16C07E00168C905ED
:1007C00003D4016821F008010160216C09B12046C1
:1007D000884794F85C1020208840304231D021684E
:1007E0000968C9062DD5A86094F835000528206849
:1007F000016806D0490347D5006800031DD4616C29
:100800001CE021F0160101602068416921F080019F
:100810004161206C08B9A06C20B12068016821F00A
:100820000801016094F85C103F208840A86084F8BB
:10083000349084F83580216D1FE0E16B09B12046CA
:100840008847606D00282BD0606DC00714D005204C
:1008500084F835002068016821F0010101600098EA
:10086000401C0090B84203D820680068C007F6D149
:1008700084F8349084F83580E16C002910D001B000
:100880002046BDE8F04308470168C905D5D4016892
:1008900021F01001016084F8349084F83580CCE7B1
:1008A000BDE8F8831C0000202DE9F041044600F06B
:1008B00077F906465CB1002584F83450022084F8AC
:1008C00035002068016821F0010101600DE0012080
:1008D000BDE8F08100F064F9801B052805D92020CF
:1008E0006065032084F83500F2E720680068C007DF
:1008F000F0D12268116820480140D4E9010318436F
:10090000D4E903363343184363691843A369184392
:10091000E3691843236A18430843616A042903D131
:10092000D4E90B1319430843106020684069666AD4
:1009300020F0070130460E43012704280CD1A06A9D
:100940000643E06A40B1204602F0F6FE20B14020A6
:10095000606584F83570BAE720684661204602F089
:1009600015FF94F85C203F2191408160656584F813
:1009700035700020ACE700003F8010F070B50446F1
:1009800000F00EF90546601C02D0044800780444CB
:1009900000F006F9401BA042FAD370BD1000002001
:1009A000082806D103480168491C0160024802F08A
:1009B00019BC704700000020D0000020044910B589
:1009C0000A68024202D00860FFF7EAFF10BD00008B
:1009D000143C01402DE9F84F00224FF00108032597
:1009E0004FF00F0E0B6808FA02F42340A3426ED1B9
:1009F0004E68012E05D0022E03D0112E01D0122EEA
:100A000012D186684FEA420C05FA0CF7BE43CF6854
:100A100007FA0CF7374387604668A6430C79C4F39E
:100A20000014944034434460C668570005FA07FC3C
:100A30008C6826EA0C06BC403443C4604C68022C27
:100A400001D0122C13D1D40800EB8404A346D4F8AF
:100A5000209054074FEAD46A0EFA0AF629EA0609EA
:100A60000E6906FA0AF646EA0906CBF8206006681F
:100A70000C7926EA0C0604F00304BC4034430460FD
:100A80004C68E40065D5364C266846F480462660FE
:100A9000246822F0030604F480440094314C34446A
:100AA000A446D4F808489607370F0EFA07F6B44361
:100AB0002D4EB04201D1002624E02C4EB04201D18F
:100AC00001261FE02A4EB04202D102261AE040E081
:100AD000284EB04201D1032614E0274EB04201D186
:100AE00004260FE0254EB04201D105260AE0244E2F
:100AF000B04201D1062605E0224EB04201D10726C0
:100B000000E00826BE402643CCF808681E4E346834
:100B10004F689C43FF0300D51C4334601A4C241DCE
:100B200026684F689E43BF0300D51E432660164EBD
:100B3000083634684F689C43FF0200D51C4334607C
:100B4000114E0C3634684F689C43BF0200D51C43DD
:100B50003460521C102AFFF445AFBDE8F88F000046
:100B600044380240003001400000024000040240CE
:100B700000080240000C0240001002400014024035
:100B800000180240001C0240003C0140006908407F
:100B900000D0012070470AB1816170470904FBE76A
:100BA00001488068704700001000002070B5040004
:100BB00025D094F83D00002520B984F83C5020460B
:100BC00000F04CFA242084F83D002068016821F0F0
:100BD000010101602068016841F400410160206862
:100BE000016821F40041016000F0B0FB4D4A6168EA
:100BF000914201D84C4900E04C49884201D2012081
:100C000070BD4B492368B0FBF1F15E6826F03F06EA
:100C10000E435E606368934206D94FF4967359435E
:100C20004FF47A73B1FBF3F12368491C1E6A26F076
:100C30003F06314319626168914210D84900401E55
:100C4000B0FBF1F2521CC2F30B02042A01D20420C1
:100C500022E0B0FBF1F0401CC0F30B001CE0A268E6
:100C6000F2B301EBC10303EB0116431EB3FBF6F332
:100C70005B1C43F480431B0549D092B301EBC102D6
:100C800002EB0111401EB0FBF1F0401CC0F30B0061
:100C900040F4804040F400402168CA694CF6FF737C
:100CA0009A431043C861D4E90710014320680268E1
:100CB00022F0C00211430160D4E90301014320681E
:100CC000826848F2FF339A4311438160D4E90501F9
:100CD00008432168CA6822F0FF021043C86001E09F
:100CE0000EE016E02068016841F001010160256412
:100CF000202084F83D00256384F83E50002070BD1C
:100D000001EB4106431EB3FBF6F35B1CB3E7012086
:100D1000C2E701EB4101401EB0FBF1F0401CC0F303
:100D20000B00B7E7A086010080841E0000093D008B
:100D300040420F002DE9FF4F83B09A46DDE911973D
:100D400093460446DDF84080FFF72AFF054694F8F5
:100D50003D00202870D119230122714920460095B9
:100D600002F011FE0028F5D194F83C00012863D070
:100D7000012084F83C0020680168C90703D101689C
:100D800041F0010101602068016821F40061016007
:100D9000222084F83D00402084F83E00002626648E
:100DA000C4F82480A4F82A90608D20855D48E06214
:100DB000CDE9007553465A462046049902F0FAFCE4
:100DC00000287CD1208DD0B1012821D002282068B4
:100DD00024D0416980690090208D032869D80128BA
:100DE0002BD0514902283B464FF00002009559D0C4
:100DF0008846204602F0C7FD002860D13CE020680C
:100E0000416981690091016841F40071016077E0F6
:100E10002068016821F480610160F0E7016821F435
:100E2000806101602068016841F400610160206810
:100E300041698069009063E06FE02A4639462046A8
:100E400002F021FE98BB20680069616A08704EE0DC
:100E50002068016841F40071016020680069616ADE
:100E60000870606A401C6062218D491E2185618D79
:100E7000491E6185216838E02068016821F480619D
:100E8000016020680069616A0870606A401C6062E5
:100E9000208D401E2085608D401E60853B460022CF
:100EA00041460095204602F06EFD00B9D0E706E00D
:100EB000FFE72A463946204602F0E5FD18B1012039
:100EC00007B0BDE8F08F20680069616A0870606A49
:100ED000401C6062218D491E2185618D491E6185FE
:100EE00021684A69D24352070AD409690170606ACD
:100EF000401C6062208D401E2085608D401E6085F4
:100F0000208D00287FF468AF202084F83D0084F80D
:100F10003E6084F83C600020D2E70220D0E7000069
:100F2000020010000000FFFF040001002DE9FF4F48
:100F300083B09A46DDE9119793460446DDF8408078
:100F4000FFF72EFE054694F83D0020287FD1192397
:100F5000012240492046009502F015FD002876D177
:100F600094F83C00012872D0012084F83C002068ED
:100F70000168C90703D1016841F0010101602068DF
:100F8000016821F400610160212084F83D004020C7
:100F900084F83E0000262664C4F82480A4F82A9031
:100FA000608D20852C48E062CDE9007553465A4695
:100FB0002046049902F07CFC70B930E02A4639469C
:100FC000204602F03AFD58B1206C042804D1206874
:100FD000016841F400710160012007B0BDE8F08FA5
:100FE000606A216800780861606A401C6062218D37
:100FF000491E89B22185628D521E6285226853691D
:10100000DB435B070BD469B100781061606A401C58
:101010006062208D401E2085608D401E6085208D81
:101020000028CBD12A463946204602F0E0FC0028B1
:10103000CAD154F83D0B016841F4007101602020D1
:1010400004F81E09E67766770020C6E7FFE702206E
:10105000C3E70000020010000000FFFFF0B587B0FA
:10106000044614216846FFF7E5F81A4920688842CB
:101070002DD11948016841F004010160016801F0B7
:1010800004010591016841F001010160006812242A
:1010900000F0010005904FF400700125032604279D
:1010A0008DE8F10069460D48FFF794FC28028DE8B1
:1010B000F10069460A48FFF78DFC074810300168C7
:1010C00041F400010160006800F40000059007B0E1
:1010D000F0BD0000005C00403038024000080240D3
:1010E0000000024002488168027811448160704724
:1010F000100000200B4810B5016841F40071016038
:10110000016841F480610160016841F4807101600F
:10111000032000F06FF8002000F006F800F024F83B
:10112000002010BD003C024070B50D4D04464FF448
:101130007A712878B1FBF0F00A490968B1FBF0F048
:1011400000F0B5FC48B9102C07D200222146501EF1
:1011500000F030F800206C6070BD012070BD000010
:10116000100000201C0000200A4808B5016841F466
:1011700080410160006800F4804000900548001F35
:10118000016841F080510160006800F080500090DB
:1011900008BD000044380240002809DB00F01F02AF
:1011A000012191404009800000F1E020C0F80011C9
:1011B00070470000F0B40E4B1B680C46C3F30223CB
:1011C000C3F10705042D00D90425191D072901D2F3
:1011D000002300E0DB1E012606FA05F1491E21402E
:1011E00099409E40761E16403143F0BC02F01EBF6F
:1011F0000CED00E0064900F0070208684FF6FF0317
:10120000184040EA0220034A10430860704700007B
:101210000CED00E00000FA052DE9F0470E46050050
:1012200065D0DFF81481D8F80000F7B200F00F00A5
:10123000B04207D288F80070D8F8000000F00F0024
:10124000B04254D128683D4C810712D5400703D5E0
:10125000206840F4E05020602878000703D520681B
:1012600040F4604020602068A96820F0F000084346
:1012700020602878C0072DD03049686808390128D7
:1012800012D0022813D0032811D009688907002939
:101290002DDA216821F0030101432160FFF780FC72
:1012A000814641F2883A0EE009688903EFE7096850
:1012B0008901ECE7FFF774FCA0EB0901514502D965
:1012C0000320BDE8F0872068696800F00C00B0EBEF
:1012D000810FEFD1D8F80010404601F00F01B14264
:1012E00007D90770006800F00F00B04201D001205C
:1012F000E7E72878400705D52068E96820F4E05042
:10130000084320602878000706D52068296920F462
:10131000604040EAC100206000F038F82168084AC7
:10132000C1F30311515CC8400649086006480068D3
:10133000FFF7FAFE0020C4E7003C024008380240F4
:10134000544300081C0000201400002004480549F4
:1013500000680968044AC1F38221515CC8407047A3
:101360001C00002008380240644300080448054976
:1013700000680968044AC1F34231515CC8407047B3
:101380001C0000200838024064430008154810B5CE
:10139000006810F00C02144813D01449042A0FD02E
:1013A000082A0ED10F4C241F2268236802F03F0246
:1013B0005B0207D52068C0F38810A0FB010106E09E
:1013C000084610BD2168C1F38811A1FB000100236C
:1013D000FEF7F8FE2168C1F30141491C4900B0FB4A
:1013E000F1F010BD083802400024F400001BB700E3
:1013F0002DE9F84F04006ED02078DFF83C93C00749
:10140000A9F104054AD009F104000168C1F3810182
:10141000012908D00068C0F3810002280AD1D9F858
:101420000000400206D52868800337D56068002890
:10143000E1D033E06068B0F5803F10D0B0F5A02F68
:10144000286810D020F480302860286820F480209C
:1014500028606068A8B1FFF7A3FB06460DE0286886
:1014600040F48030F4E740F480202860F7E700BFC4
:10147000FFF796FB801B642873D828688003F7D594
:101480000CE0FFF78DFB064605E000BFFFF788FB89
:10149000801B6428F0D828688003F7D42078DFF810
:1014A0009C8280074FF0000A3ED5A348001D0168CA
:1014B00011F00C0F08D00068C0F3810002280BD196
:1014C000D9F80000400207D42868800716D5E068E4
:1014D000012800D112E02BE1E068B8B10120C8F882
:1014E0000000FFF75DFB064605E000BFFFF758FB75
:1014F000801B0228C0D828688007F7D52868216992
:1015000020F0F80040EAC10028600DE0C8F800A013
:10151000FFF746FB064604E0FFF742FB801B02286C
:101520001FD828688007F7D42078000722D5824E7C
:1015300083486169703671B101210160FFF730FBAA
:10154000074604E0FFF72CFBC01B022809D83068CF
:101550008007F7D50EE0C0F800A0FFF721FB074693
:1015600005E082E0FFF71CFBC01B02287DD8306835
:101570008007F7D42078400768D5DFF8BCB1002792
:101580000BF13C0BDBF80000C0000BD4DBF80010C3
:1015900041F08051CBF80010DBF80000012700F08B
:1015A00080500090674E3068C00510D4306840F419
:1015B00080703060FFF7F4FA009005E0FFF7F0FA72
:1015C0000099401A022850D83068C005F6D55A4E06
:1015D000A0686C3601280FD00528306810D020F0A4
:1015E00001003060306820F004003060A068B8B1BD
:1015F000FFF7D6FA00900FE0306840F00100F4E702
:1016000040F004003060F7E7FFF7CAFA0099411A8A
:1016100041F28830814266D830688007F4D50EE008
:10162000FFF7BEFA009007E0FFF7BAFA0099411AF7
:1016300041F28830814256D830688007F4D42FB107
:10164000DBF8001021F08051CBF80010A069C8B37E
:101650003949091D0968C1F3810102294AD00228CC
:10166000504607D0C8F8600000E03CE0FFF798FA69
:1016700004463BE04746C8F86000FFF791FA06468B
:1016800005E000BFFFF78CFA801B02282BD82868E2
:101690008001F7D4D4E907010843A16A2A4A49081E
:1016A00002EB0141626A41EA8211084394F82C106E
:1016B00040EA0161C9F8001001203866FFF770FAAE
:1016C000044606E036E000BFFFF76AFA001B022876
:1016D00009D828688001F7D52CE000BFFFF760FA31
:1016E000001B022802D90320BDE8F88F286880017A
:1016F000F4D41FE00128F7D0D9F80000E26900F423
:101700008001914214D1226A00F03F0191420FD131
:1017100047F6C071626A0140914209D1A26A00F4A1
:101720004031914204D1E16A00F07060884201D0FA
:101730000120D9E70020D7E70438024000004742E3
:10174000800E4742007000400000FFFF70B50400AB
:1017500005D00025A56294F8510010B106E00120E3
:1017600070BD84F85050204600F030F8022084F814
:1017700051002068016821F040010160D4E90101B5
:101780000843D4E903121143084361690843218BDC
:1017900001F400710843E1690843216A0843A16A22
:1017A000084321680860A069042101EA1040616AC9
:1017B0000843216848602068C16921F40061C16163
:1017C0006565012084F85100002070BD2DE9F041CD
:1017D00086B0064614216846FEF72CFD3549306870
:1017E000884264D134480024016841F4805101608A
:1017F000006800F4805005902F481438016841F0CB
:1018000002010160016801F002010591016841F0E7
:10181000010101600068022500F001000590182018
:10182000CDE9000502AA03274FF0050882E89001E0
:1018300069462248FFF7CEF88020CDE9000502AACC
:10184000694682E890011E48FFF7C4F81E4D1D4806
:101850007F062860C5E901744FF48068C5E9034834
:101860006C617812AC61C5E9074028466C62FFF7ED
:101870001BF808B1FEF759FDF564AE63124D11482F
:1018800060351830E5E802074020A5E81101C002E4
:1018900045F81449AC61C5E907400B486C626030FB
:1018A000FFF702F808B1FEF740FDB564AE6306B07D
:1018B000BDE8F0810030014044380240000402409D
:1018C0000000024040640240300200202DE9F84F41
:1018D000044690F8500000270A9E1D4692468B460B
:1018E0004FF0010901280ED0012084F85000FFF7C5
:1018F00057F9804694F85100616801280CD0B1F581
:10190000827F07D102E00220BDE8F88FA16809B903
:10191000042801D00227C2E0BBF1000F27D0BAF1A2
:10192000000F24D01DB394F85100042802D00520E4
:1019300084F8510000206065C4F838A0E587A587C9
:10194000C4F830B0E586A58620646064206801682C
:10195000490603D4016841F040010160E068B0F538
:10196000006F606805D0E8B3012D46D07FE0012705
:1019700095E008B1012D39D1206B21680088C8603D
:10198000206B801C2063E08E401EE0862EE02068E5
:10199000816889070FD5E18E69B1B9F1010F0AD1CC
:1019A000216B0988C160206B801C2063E08E401E83
:1019B000E0864FF0000920688168C9070CD0E18FEC
:1019C00051B1C068A16B0880A06B801CA063E08F40
:1019D000401EE0874FF00109FFF7E2F8A0EB080096
:1019E000B04200E009E001D3701C50D1E08E002825
:1019F000CDD1E08F0028CAD13FE0206B216800786C
:101A00000873206B401C2063E08E401EE0862EE0B1
:101A10002068816889070FD5E18E69B1B9F1010F9E
:101A20000AD1216B09780173206B401C2063E08E82
:101A3000401EE0864FF0000920688168C9070CD07D
:101A4000E18F51B1C068A16B0870A06B401CA0630E
:101A5000E08F401EE0874FF00109FFF7A1F8A0EBEF
:101A60000800B04202D3701C01D010E07EB1E08EBD
:101A70000028CDD1E08F0028CAD142463146204609
:101A800002F080F828B101272020606507E00327D5
:101A900005E0A06818B92068C1688068009001203E
:101AA00084F85100002084F8500038462CE710B527
:101AB000401EB0F1807F01D3012010BD4FF0E02423
:101AC00060610F21601702F0B1FA0020A0610720C9
:101AD0002061002010BD7047704710B590F83C2081
:101AE000012A22D0012280F83C20CA688C6822F4A6
:101AF000407222434C6822F4806222430C6822F434
:101B0000006222430C6922F4805222434C6922F481
:101B100000522243C969002322F480420A4301682B
:101B20004A6480F83C30002010BD022010BD000047
:101B300070B590F83C20012A32D0012480F83C4056
:101B4000022280F83D2003685A689D6822F07006E2
:101B50000A6832435A60134B02689A4214D0B2F1B9
:101B6000804F11D0104B9A420ED0104B9A420BD09E
:101B70000F4B9A4208D00F4B9A4205D00E4B9A4217
:101B800002D00E4B9A4204D1496825F080031943D4
:101B9000916080F83D40002180F83C10084670BDFF
:101BA000022070BD00000140000400400008004019
:101BB000000C0040000401400040014000180040BB
:101BC00010B5040003D094F83D0010B107E00120E7
:101BD00010BD002084F83C00204600F00DF80220E3
:101BE00084F83D00211D206801F072F8012084F87E
:101BF0003D00002010BD000008B5234902682348BD
:101C00008A4207D1016841F001010160006800F0DB
:101C100001002DE01D491E4B091F9A4207D108689B
:101C200040F004000860086800F0040009E0194B67
:101C30009A4208D1086840F008000860086800F07F
:101C40000800009008BD14498A4207D1016841F09C
:101C500002010160006800F00200F2E70F498A42C9
:101C6000F0D1016841F400310160006800F40030F7
:101C70000022009011461920FFF79CFABDE80840A9
:101C80001920FFF789BA00000000014044380240E3
:101C900000080040000C00400004014000440140E6
:101CA000022180F83D1001688A6802F00702062AC6
:101CB00003D00A6842F001020A60012180F83D1059
:101CC000002070470168CA6842F00102CA600068DB
:101CD000816801F00701062903D0016841F0010184
:101CE00001600020704770B5044690F83C00012860
:101CF00017D0012584F83C50022084F83D0020686C
:101D0000826822F0770222F47F42826008685028BD
:101D100030D00DDC20284DD005DC98B310283BD105
:101D200048E0022070BD302844D0402834D139E04A
:101D3000602828D0702806D0B0F5805F2CD0B0F590
:101D4000005F29D10AE0CB68D1E90121206801F0C8
:101D500030F82068816841F0770109E0CB68D1E96B
:101D60000121206801F025F82068816841F4804154
:101D7000816011E0CA684968206802F00DF85021BE
:101D8000206807E016E0CA684968206802F015F884
:101D90006021206801F0F8FF84F83D50002084F8AD
:101DA0003C0070BDCA684968206801F0F5FF402119
:101DB0002068EFE7226801461046EBE7704770B5F0
:101DC0000446006801694FF00005C943890715D42E
:101DD000C168C943890711D4E91E01610120207738
:101DE000206880698007204602D0FFF7E7FF04E003
:101DF00000F00AF9204600F08CF925772068016987
:101E0000C943490717D4C168C943490713D46FF0C0
:101E100004010161022020772068806910F4407F6E
:101E2000204602D0FFF7CAFF04E000F0EDF820469C
:101E300000F06FF9257720680169C943090716D4B6
:101E4000C168C943090712D46FF008010161042079
:101E500020772068C0698007204602D0FFF7AEFFD8
:101E600004E000F0D1F8204600F053F9257720680F
:101E70000169C943C90617D4C168C943C90613D447
:101E80006FF010010161082020772068C06910F40C
:101E9000407F204602D0FFF791FF04E000F0B4F845
:101EA000204600F036F9257720680169C943C90743
:101EB00008D1C168C943C90704D1891E0161204600
:101EC00000F04AF920680169C943090609D4C168CC
:101ED000C943090605D46FF0800101612046FFF770
:101EE000FAFD20680169C943490609D4C168C9439C
:101EF000490605D46FF040010161204600F09EF9CB
:101F000020680169C94389060BD4C168C9438906A1
:101F100007D46FF0200101612046BDE87040FFF753
:101F2000DBBD70BD30B587B0044614216846FEF7AE
:101F300081F923682B4C00212B480222A34210D1A7
:101F4000036843F008030360006800F00800059090
:101F500050030090CDE90121CDE9031269462348E1
:101F600013E0234CA34214D1036843F080030360C1
:101F7000006800F0800005904FF4E0500090CDE93B
:101F80000121CDE9031269461A48FEF723FD07B087
:101F900030BD194D0324AB4210D1036843F4807364
:101FA0000360006800F480700590E0200090CDE9A7
:101FB0000121CDE9031469461048E6E7104DAB4214
:101FC000E5D1036843F002030360006800F00200FB
:101FD0000590A8150090CDE90121CDE903146946CB
:101FE0000848D2E70008004030380240000C0240A8
:101FF000000C0040001C0240000401400020024090
:102000000044014000040240704770B5044690F857
:102010003C000D4601280DD0012684F83C600220CA
:1020200084F83D0042B1042A18D0082A2AD00C2A8C
:102030004DD139E0022070BD206801F019FE206802
:10204000816941F0080181612068816921F0040102
:102050008161206881692A69114311E0206800F0DC
:10206000B3FE2068816941F4006181612068816963
:1020700021F480618161206881692A6941EA022135
:10208000816124E0206801F023FE2068C16941F0ED
:102090000801C1612068C16921F00401C1612068A3
:1020A000C1692A69114311E0206801F045FE2068EA
:1020B000C16941F40061C1612068C16921F4806196
:1020C000C1612068C1692A6941EA0221C16184F8BD
:1020D0003D60002084F83C0070BD10B5040003D0C2
:1020E00094F83D0010B107E0012010BD002084F8F5
:1020F0003C00204600F00CF8022084F83D00211D31
:10210000206800F0E5FD012084F83D00002010BDAE
:102110007047704710B504460068012200F03CFE8D
:102120000B492068884202D00A49884203D1416C99
:1021300041F4004141642068816801F007010629EB
:1021400003D0016841F001010160002010BD0000D2
:10215000000001400004014070B53449884264D158
:10216000334C6068401C0A2190FBF1F2606001FB77
:10217000120068B92F4801F0C7F92E4801F0A4F900
:102180002C4904F10C024831A1F10C0000F072FE60
:10219000606842F2107188420DD126484FF47A717E
:1021A000303801F05EFF234800231A46FF21303803
:1021B00002F01EF82BE0A0F59C42203A0ED01D4DF7
:1021C00041F28832303D904217DAFF231A46194611
:1021D000284602F00DF80120287118E01548002269
:1021E000FF231146303802F003F8124832231A4612
:1021F0000521303801F02AFF09E00022884201DA87
:102200002A7104E047F23051884200DB6260082105
:102210000948FEF7BBFC10B9A068401CA060BDE8EF
:1022200070400448303801F031BF70BDF00200202A
:1022300000000020A00000200018024070477047F6
:1022400070B5026804461068D168536910F00F0F2A
:1022500052D003F0010501F490762E435FD0C207FF
:1022600005D0CA0503D5E26B42F00102E2634207E2
:1022700005D5DA0703D0E26B42F00202E26382077F
:1022800005D5DA0703D0E26B42F00402E2630207ED
:1022900007D501F020022A4303D0E26B42F0080286
:1022A000E263E26B002A33D0800604D5880602D5AB
:1022B000204601F029FE20684069E16BC0F38010E0
:1022C000090700D428B3204601F09AFE206841692E
:1022D00049061AD5416921F040014161606BA0B106
:1022E0001B490165606BFEF7FDF9002810D0606B9B
:1022F000016DBDE870400847830610D58B060ED5EA
:102300002046BDE8704001F0FFBD2046FFF797FF73
:1023100070BD2046FFF793FF0020E06370BD030609
:1023200006D50B0604D52046BDE8704001F037BE47
:102330004006F3D54806F1D5D168204621F040018A
:10234000D160202184F8391000F01BF970BD000025
:102350001D40000870B5040004D094F83900002531
:1023600010B106E0012070BD84F83850204600F01E
:1023700023F8242084F839002068C16821F4005132
:10238000C160204601F02CFD2068016921F49041D4
:1023900001612068416921F02A0141612068C1681A
:1023A00041F40051C160E563202084F8390084F8CD
:1023B0003A00002070BD00002DE9F04786B00646C7
:1023C00014216846FDF736FF6448DFF88C8102224D
:1023D000D6F800C061491438032307250024970666
:1023E0004FF480694FF4403AC4454ED1D1F800C053
:1023F0004CF0100CC1F800C0096801F01001059103
:10240000016841F0020101600068694600F00200C5
:102410000590C0208DE81500CDE903355048FEF742
:10242000D9FA514D4F48B846E5E802074020A5E8E3
:102430001102574645F814494B48AC61C5E9074AB3
:102440006C62FEF731FA08B1FDF76FFF3563AE63DA
:10245000454D4448603530382860C5E90184C5E9F8
:1024600003496C61AC61C5E9074728466C62FEF719
:102470001BFA08B1FDF759FF7563002211462520AC
:10248000AE63FEF797FE25203CE0DFF8E080C44510
:102490003DD13249091FD1F800C04CF4802CC1F85D
:1024A00000C0096801F480210591016841F0040130
:1024B00001600068694600F0040005904FF4406038
:1024C0008DE81500CDE903352948FEF783FA264D3E
:1024D0002848C0352860C5E90174C5E903496C6125
:1024E000AC61C5E9074A28466C62FEF7DDF908B120
:1024F000FDF71BFF7563002211462720AE63FEF730
:1025000059FE2720FEF748FE06B0BDE8F0871A4DB9
:10251000AC45F9D10D6845F020050D60096801F062
:1025200020010591016841F04001016000686946A1
:1025300000F0400005904FF484408DE8150008201D
:10254000CDE903300D48FEF745FA00221146472039
:10255000FEF730FE4720D5E7001001404438024026
:1025600000040240B8640240F0040020004800402B
:102570000008024028600240001401400018024098
:1025800070477047FEE700007FB5002415480094AF
:10259000019402941249039401604FF48031C0E920
:1025A00001140461047680F820400F49C0E90A1440
:1025B0000125C561C46080F830404561FDF761FFC9
:1025C00008B1FDF7B2FE1120CDE90005694602947D
:1025D0000448FDF7ADFE002801D0FDF7A6FE7FBD43
:1025E00000200140F40000200100000F7FB500240E
:1025F00015480094019402941249039401604FF429
:102600008031C0E901140461047680F820400F494C
:10261000C0E90A140125C561C46080F830404561F5
:10262000FDF72FFF08B1FDF780FE0820CDE900057A
:10263000694602940448FDF77BFE002801D0FDF7AF
:1026400074FE7FBD002201403C0100200100000F0C
:102650001D4808B5016841F480010160016801F47A
:1026600080010091016841F40011016000680022BE
:1026700000F40010009011460C20FEF79BFD0C208A
:10268000FEF78AFD002211463A20FEF793FD3A201C
:10269000FEF782FD002211463B20FEF78BFD3B201A
:1026A000FEF77AFD002211464420FEF783FD442008
:1026B000FEF772FD002211464620FEF77BFDBDE8C5
:1026C00008404620FEF768BD303802402DE9F04151
:1026D00086B014216846FDF7ADFD5648016841F00B
:1026E00002010160016801F002010591016841F0F9
:1026F00040010160016801F040010591016841F06D
:1027000001010160016801F001010591016841F0DA
:1027100004010160016801F004010591016841F4C0
:1027200080710160016801F480710591016841F0D8
:1027300080010160016801F080010591016841F0AC
:1027400020010160016801F020010591016841F05C
:10275000080101600068384E00F008000590012271
:1027600040213046FEF717FA344F01221021384637
:10277000FEF711FADFF8C880012211464046FEF745
:102780000AFA01244020CDE900040294694630464B
:102790000394FEF71FF92B4D0820CDE9000569468B
:1027A00002943046FEF716F927486946CDE9004005
:1027B00038460294FEF70EF91020CDE900040226F7
:1027C000CDE9024669463846FEF704F93020CDE9E6
:1027D0000005694602941D48FEF7FCF8CDE9024663
:1027E0000094694640460194FEF7F4F80022114631
:1027F0000620FEF7DFFC0620FEF7CEFC0022114685
:102800000920FEF7D7FC0920FEF7C6FC002211467E
:102810000A20FEF7CFFC0A20FEF7BEFC002211467C
:102820001720FEF7C7FC1720FEF7B6FC06B0BDE880
:10283000F0810000303802400018024000000240E1
:102840000004024000002110000031100008024086
:102850000D4810B50B4901600C49416000214FF44F
:1028600080428160C0E9031241618161C1610162FE
:10287000FEF79CF9002803D0BDE81040FDF755BDD8
:1028800010BD0000005C004084010020801A06009A
:10289000104810B50E4901604FF48271416000216B
:1028A00002228160C0E90312012242615202826168
:1028B0003822C0E90721416281620A21C162FEF724
:1028C00045FF002803D0BDE81040FDF72EBD10BD28
:1028D00000300140D801002010B588B01C216846A6
:1028E000FDF7A8FC144813490024C0E9001441F284
:1028F0008731C0E9024104618461FFF761F908B1E1
:10290000FDF713FD0C48FFF7E8FB08B1FDF70DFDDF
:102910006020CDE900040294002269460648049430
:10292000FFF773FB08B1FDF700FD0348FFF7FAFA64
:1029300008B010BD00440140F003002010B586B07F
:1029400000241748009401940294039404941349BA
:102950000594016040F28F61C0E901146321C0E970
:10296000031444618461FFF72BF908B1FDF7DDFC26
:102970004FF48050009069460948FFF7B4F908B158
:10298000FDF7D3FC049404A905480594FFF7D0F89B
:10299000002801D0FDF7C9FC06B010BD00000140C1
:1029A000F002002010B58EB000240794089409941A
:1029B0000A940B941C2168460C94FDF73BFC1E48BE
:1029C0001C49C0E9001445F20721C0E90241046135
:1029D0008461FFF7F5F808B1FDF7A7FC4FF48050CC
:1029E000079007A91448FFF77EF908B1FDF79DFC91
:1029F0001148FFF772FB08B1FDF797FC0B940BA988
:102A00000D480C94FFF794F808B1FDF78EFC602098
:102A1000CDE9000402940822694607480494FFF7B0
:102A2000F4FA08B1FDF781FC0348FFF77BFA0EB01A
:102A300010BD0000000800403003002010B58EB02B
:102A400000240794089409940A940B941C21684666
:102A50000C94FDF7EFFB26482449C0E900144FF61B
:102A6000FF71C0E9024104618461FFF7A9F808B170
:102A7000FDF75BFC4FF48050079007A91C48FFF757
:102A800032F908B1FDF751FC1948FFF726FB08B1F0
:102A9000FDF74BFC0B940BA915480C94FFF748F875
:102AA00008B1FDF742FC6020CDE900040294002249
:102AB00069460F480494FFF7A8FA08B1FDF735FC02
:102AC000042269460A48FFF7A0FA08B1FDF72DFC79
:102AD000082269460648FFF798FA08B1FDF725FC79
:102AE0000348FFF71FFA0EB010BD0000000C0040B5
:102AF0007003002010B596B000240F941094119428
:102B0000129413941C2168461494FDF793FB202122
:102B100007A8FDF78FFB31482F490160A721C0E9C5
:102B2000011444F61F61C0E9031444618461FFF796
:102B300047F808B1FDF7F9FB4FF480500F900FA94B
:102B40002648FFF7D0F808B1FDF7EFFB2348FFF761
:102B5000C4FA08B1FDF7E9FB139413A91F481494B4
:102B6000FEF7E6FF08B1FDF7E0FB602000904FF4B0
:102B7000FA60CDE9010403940494059400226946A7
:102B800016480694FFF741FA08B1FDF7CEFB042280
:102B900069461248FFF739FA08B1FDF7C6FB08226B
:102BA00069460E48FFF731FA08B1FDF7BEFB0794FE
:102BB000089409944FF400500A94CDE90B4007A9FA
:102BC00006480E94FEF789FF08B1FDF7AEFB0348F7
:102BD000FFF7A8F916B010BD00040140B0030020B3
:102BE0000C4810B50A4901604FF4E1314160002101
:102BF00081600C22C160C0E904128161C161FFF7EC
:102C0000A9FB002803D0BDE81040FDF78EBB10BD26
:102C100000100140300400200C4810B50A49016042
:102C20000B494160002181600C22C160C0E904129F
:102C30008161C161FFF78EFB002803D0BDE8104021
:102C4000FDF773BB10BD0000004800407004002079
:102C5000A08601000C4810B50A4901604FF4E1312B
:102C60004160002181600C22C160C0E904128161D1
:102C7000C161FFF76FFB002803D0BDE81040FDF7EE
:102C800054BB10BD00140140B0040020FEE7FEE775
:102C900070477047FEF726BA0548016841F4700195
:102CA000016003494FF00060803908607047000000
:102CB00088ED00E010B50448FFF781F8BDE810404A
:102CC0000248FFF77CB80000F0020020F00300206B
:102CD000F0B50268254C264D264E274F274B4FF066
:102CE000804CA04209D0604507D0A84205D0B04230
:102CF00003D0B84201D0984204D122F0700E4A6845
:102D000042EA0E02A0421BD0604519D0A84217D05B
:102D1000B04215D0B84213D0984211D0184DA842F5
:102D20000ED0184DA8420BD0174DA84208D0174D11
:102D3000A84205D0164DA84202D0164DA84203D194
:102D400022F44075CA682A434D6922F080022A4362
:102D500002608A68C2620A688262A04201D0984218
:102D600001D10969016301214161F0BD0000014009
:102D70000004004000080040000C00400004014036
:102D8000004001400044014000480140001800405C
:102D9000001C00400020004010B501F01F0301217D
:102DA000046A99408C430462016A9A4011430162AB
:102DB00010BD10B5846842EA032224F47F440A431C
:102DC0002243826010BD0000F0B5026A22F01002BA
:102DD0000262026A436884690D6824F4E64444EAA6
:102DE00005248D6822F0200242EA05120F4D104E94
:102DF000A84201D0B04206D1CF6822F0800242EA58
:102E0000071222F04002A84201D0B04207D14D691A
:102E100023F4406343EA85038D6943EA85034360F5
:102E20008461496881630262F0BD000000000140D6
:102E3000000401400148FFF703BA000030040020FD
:102E40000148FFF7FDB90000700400200148FFF7BA
:102E5000F7B90000B0040020FEE710B500F026F935
:102E600000F000F900F0F8F9044600F031F92043D1
:102E700010BD00002DE9FC410746002016460D4616
:102E80000090019000F0E0F9922000F0B9FA0622DB
:102E90006946122000F096FB00F0CEF99DF8010083
:102EA0009DF80010000200B2084300EE100A464CE4
:102EB000B8EEC00AD4ED000A20EE200A85ED000A23
:102EC0009DF803009DF80210000200B2084300EED6
:102ED000100AD4ED000AB8EEC00A20EE200A85EDF3
:102EE000010A9DF805009DF80410000200B2084395
:102EF00000EE100AB8EEC00A20EE200A85ED020AA4
:102F000000F0DEF808226946002000F05BFB00F0CC
:102F1000CFF89DF800000F2830D19DF803009DF8F0
:102F20000210000200B2084300EE100AD4ED010ABC
:102F3000B8EEC00A20EE200A87ED000A9DF80500D1
:102F40009DF80410000200B2084300EE100AD4ED10
:102F5000010AB8EEC00A20EE200A87ED010A9DF8AA
:102F600007009DF80610000200B2084300EE100AA8
:102F7000B8EEC00A20EE200A87ED020A00F064F9DC
:102F8000A22000F03DFA02226946222000F01AFB3E
:102F900000F052F99DF800009DF80110C00040EAD1
:102FA0005110B0F5806F01DBA0F5006000EE100A53
:102FB000B4EE001AF8EEC00AB3EE070A00EE810A7A
:102FC00086ED000ABDE8FC81440000202DE9F041B7
:102FD000002400F0C9F900F0E9F800F03BF83220D5
:102FE00000F0E5F800F02EF8322000F0E0F80020C4
:102FF00000F024FA102802D04020BDE8F081104DE6
:1030000004EB44067719A85D797800F02DFA962034
:1030100000F0CFF8A85D00F011FA0646962000F007
:10302000C8F87878B04204D004EB44002844807893
:10303000E3E7641CE4B2042CE2D30020DDE70000E7
:103040006C430008012240210148FDF7A4BD0000A7
:1030500000180240002240210148FDF79CBD0000FD
:1030600000180240704730B504464FF47A7502E00C
:10307000284600F004F8641EA4B2F9D230BD70B541
:103080004FF0E02400226569A8214843A169A369A3
:103090008B42FCD002D2A1EB030102E0A5EB0306B8
:1030A00031440A4419468242F1D370BD7047000092
:1030B000012211460148FDF76EBD000000040240E8
:1030C000002201210148FDF766BD00000004024016
:1030D000F8B500248DF80040FFF7F2FF69460020A4
:1030E00000F082FAFFF7E4FF9620FFF7C8FFFFF732
:1030F000E7FF6946002000F077FAFFF7D9FF962036
:10310000FFF7BDFFFFF7DCFFB621142000F077FAD0
:10311000FFF7CEFF5020FFF7A6FFFFF7D1FF69466C
:10312000002000F061FAFFF7C3FF9620FFF7A7FF2A
:10313000FFF7C6FF6946002000F056FAFFF7B8FF18
:103140009620FFF79CFF9DF800000F2801D0FF207C
:10315000F8BD154DFFF7B4FF04EB44067719A85DE1
:10316000797800F04CFAFFF7A3FF9620FFF787FF6E
:10317000FFF7A6FFA85D694600F036FAFFF798FF53
:103180009620FFF77CFF78789DF80010884204D0E5
:1031900004EB440028448078F8BD641CE4B2062C9B
:1031A000D8D30020F8BD00005E0000207047FDF776
:1031B000E5BB70B54FF0E02300215C6900EBC00077
:1031C0009A69C50098699042FCD002D2A2EB000235
:1031D00002E0A4EB0006324411440246A942F1D3B6
:1031E00070BD00001CB5044606226946032000F0AD
:1031F00017F9BDF9000000EE100AF8EEC00A9FEDC5
:103200000D0A60EE800AC4ED000ABDF9020000EE6E
:10321000900AF8EEE00A60EE800AC4ED010ABDF9FA
:10322000040000EE900AF8EEE00A20EE800A84ED39
:10323000020A1CBD9A99993E012210210148FDF70E
:10324000AABC000000000240002210210148FDF746
:10325000A2BC0000000002402DE9F0410024FFF76D
:10326000F3FF802000F0CCF8552000F0C9F855207D
:1032700000F0C6F8FFF7E0FF9620FFF700FFFFF72A
:10328000E3FF802000F0BCF8552000F0B9F855208D
:1032900000F0B6F8FFF7D0FF9620FFF7F0FEFFF73B
:1032A000D3FFB6217E2000F0AAF9FFF7C5FF50201A
:1032B000FFF7D9FEFFF7C8FF802000F0A1F85520E6
:1032C00000F09EF8552000F09BF8FFF7B5FF962020
:1032D000FFF7D5FEFFF7B8FF802000F091F85520EA
:1032E00000F08EF8552000F08BF80546FFF7A4FF9C
:1032F0009620FFF7C4FE1E2D02D0FF20BDE8F0810E
:10330000184D00BFFFF7A0FF04EB44067719A85D36
:10331000797800F074F9FFF78FFF9620FFF7AFFE82
:10332000FFF792FFA85D40F0800000F069F855209B
:1033300000F066F8552000F063F80646FFF77CFFC2
:103340009620FFF79CFE7878B04204D004EB44004E
:1033500028448078D2E7641CE4B2062CD2D3002043
:10336000CCE700004C0000207047000030B593B05F
:1033700030216846FCF75EFF14210CA8FCF75AFFC9
:103380001D480025016841F080510160006800F08F
:10339000805011901948016841F480410160006833
:1033A000022400F48040119001200090000401905C
:1033B0008001CDE9064006200890A820CDE9090447
:1033C00004200B906846FEF713F808B172B6FEE7CA
:1033D0000CA90F2081E831004FF4A0500F904FF45A
:1033E0008050109005210CA8FDF716FF002801D091
:1033F00072B6FEE713B030BD4038024000700040A6
:1034000001B582B04FF47A700090012301AA02A99D
:103410000248FEF75BFA9DF804000EBDD8010020BB
:103420000EB50A238DE80E00024601231C21024836
:10343000FDF780FC0EBD0000840100201FB50021B7
:103440008DF80C100A23012203A98DE80E00134603
:1034500002461C210348FDF76DFC9DF80C0004B0EA
:1034600010BD00008401002003B583B00A230122AF
:1034700004A98DE80E00134602461C210248FDF700
:1034800055FD05B000BD00008401002010B50D4BB6
:1034900001200C46C3E90020002098601946204610
:1034A000FCF746FF08B1FCF740FF2046FDF7A4F803
:1034B00014212046FDF74EF82046FCF7DFFF80B2CE
:1034C00010BD00001006002010B50446D4E9041217
:1034D000FFF7DCFF00EE100AD4ED0A0A9FED091A8F
:1034E000B8EE400A20EE800ADFED050A70EE600AB1
:1034F000B3EE090A00EE810A84ED060A10BD000051
:103500005C8F423F0000C84310B50446D4E9001266
:10351000FFF7BCFF00EE100AD4ED0A0AB8EE400A2D
:1035200020EE800ADFED030A20EE200A84ED070A70
:1035300010BD00005D74214170B50026044635467B
:1035400008E000BFD4E902122046FFF79FFF6D1C80
:103550000644ADB2608CA842F4D880B200EE100AE6
:10356000DFED070AB8EE400A60EE200A00EE106AAE
:10357000B8EE400A80EE801A84ED0A1A70BD000091
:103580009A99993F0C499FED0D0A0A6802604A68B2
:1035900042608A688260CA68C2600A6902614969D9
:1035A000416180ED0B0A4FF4FA719FED050A4184E9
:1035B00080ED090A70470000200000206740533A60
:1035C0009A99993F70B514460D4640F08000FFF778
:1035D00017FF06E05520FFF713FF641E05F8010BE7
:1035E000E4B2002CF6D170BD10B50C4640F080005E
:1035F000FFF706FF5520FFF703FF207010BD10B541
:103600000C46FFF7FDFE2046BDE81040FFF7F8BE70
:10361000464910B54A6822F440324A604A68436815
:103620001A434A6001684A6822F480724A6001685D
:103630004A68036942EA03224A6001684A6822F044
:1036400040724A6001684A6883681A434A600168A8
:103650008A6822F400628A6001688A68C3681A4333
:103660008A60816A6FF07062D14201688A6822F0D4
:1036700070628A6001688A680CD0836A1A438A6023
:1036800001688A6822F040528A6001688A68C36AC9
:103690001A4301E022F040528A6001688A6822F0F1
:1036A00002028A6001688A68037E42EA43028A60F5
:1036B00090F82010002901684A680FD042F4006297
:1036C0004A6001684A6822F460424A6001684A68B8
:1036D000174C436A04EB43331A4301E022F40062BF
:1036E0004A600168CA6A22F47002CA620168CA6A42
:1036F000838B104C04EB03531A43CA6201688A6837
:1037000022F400728A6001688A6890F8303042EAD8
:1037100043228A6001688A6822F480628A600168B4
:103720008A68406942EA8020886010BD0023014019
:1037300000E0FFFF0000F0FF10B5014600208B699C
:103740008A6A4FF0C07453B1B3F5005F15D072B1FF
:10375000012A0CD0022A0AD0032A09D104E01AB1A6
:10376000012A06D0022A03D1C96AC90100D5012065
:1037700010BDC96AA142FAD010BD002AF7D0012AB3
:10378000F2D0022AF3D0032AF3D010BD0168182327
:10379000CAB2103AB2FBF3F2054B6FF30901032AE8
:1037A0009B5CC36500D9091D816508467047000010
:1037B0004C4300082DE9F84F0446006889460B9DEC
:1037C00001689846174641F48061016020680168ED
:1037D00041F48071016000954FF0011B00225946B1
:1037E00020460A9B00F0CFF84FF4007A40B12068E1
:1037F0000068C00501D5C4F840A00320BDE8F88FDB
:10380000216809F0FE0008612B46284920460A9AE3
:1038100000F06CF9F0BB20684169806900902A468D
:1038200020460A9900F009F940B1206C04283AD1E9
:103830002068016841F40071016034E0FEB2B8F123
:10384000010F09D02168380A08612A4620460A99E2
:1038500000F0F3F80028E8D1206806612A462046E7
:103860000A9900F0EAF80028DFD12068016841F4E5
:103870008071016000950022594620460A9B00F0A5
:1038800082F80028B3D1216809F0FF0040F0010060
:10389000086100E007E02B46044920460A9A00F040
:1038A00025F90028AAD00120A8E7000002000100A5
:1038B0002DE9F843044600680D46DDE908970168E4
:1038C0009846164641F4807101604B4600224FF045
:1038D00001112046009700F056F848B120680068B2
:1038E000C00502D54FF4007020640320BDE8F883C2
:1038F000216805F0FE0008613B464A46154920460E
:1039000000F0F4F888B920684169806900903A466F
:103910004946204600F091F848B1206C042804D1B3
:103920002068016841F4007101600120DEE7F5B212
:10393000B8F1010F09D02168300A08613A464946BA
:10394000204600F07AF80028E7D1206805610020C1
:10395000CCE700000200010001684A69D243520529
:103960000FD46FF480624A61002140F8301F20229A
:1039700042738173026942F0040202610173012003
:103980007047002070472DE9F0471E4690460D46CF
:103990000446C1F30747DDF8209008E0701C06D00C
:1039A000FDF7FEF8A0EB0900B0420FD876B1206811
:1039B000012F18D0806925EA00000004000C14D003
:1039C00000214145EAD00020BDE8F087002044F8FE
:1039D000300F20216173A073216941F02001216122
:1039E00020730120F0E74069E5E70121E9E770B5C0
:1039F00016460D4604460DE02046FFF7ADFF08B120
:103A0000012070BD681C05D0FDF7CAF8801BA842D4
:103A100007D835B120684069C0434007ECD4002086
:103A200070BD002044F8300F20216173A07321691C
:103A300041F0200121612073E2E770B516460D4682
:103A400004460DE02046FFF787FF08B1012070BD56
:103A5000681C05D0FDF7A4F8801BA84207D835B133
:103A600020684069C0430006ECD4002070BD0020EF
:103A700044F8300F20216173A073216941F02001C7
:103A800021612073E2E72DE9F041002590460E46C2
:103A90000446202717E04069C043C0060CD454F800
:103AA000301B6FF01000486144F810596777A57714
:103AB000206A2062257717E0FDF772F8A0EB080076
:103AC000B04208D83EB120684169C9434906E2D4F2
:103AD0000020BDE8F08144F8305F6773A57320696A
:103AE00040F02000206125730120F2E72DE9F04726
:103AF0009A4691460E46044600254FF02008C1F331
:103B0000074725E020684069C043400514D4206879
:103B1000016841F40071016021686FF480604861C0
:103B2000256384F83D8084F83E50206C40F004000A
:103B3000206484F83C501FE0B9F1FF3F08D0FDF746
:103B40002FF8A0EB0A0149450CD8B9F1000F09D0B4
:103B50002068012F13D0806926EA00000004000CC1
:103B60000BD0CFE744F8305F84F80D80A57320694F
:103B700040F02000206125730120BDE8F0874069F6
:103B8000EAE7000038B504461248134B0068B0FB62
:103B9000F3F04FF47A73584300906068B0F5827F79
:103BA0000DD10B46009200228021204600F016F82D
:103BB00070B1606D40F020006065032038BD009852
:103BC00030B1401E009020688068C0430006F6D5E2
:103BD000002038BD1C00002000366E012DE9F041A8
:103BE0001D4617460E460446DDF8188008E0681C9E
:103BF00006D0FCF7D5FFA0EB0800A8420BD255B1C8
:103C00002068806836EA000030D00020B842EED14B
:103C10000020BDE8F0812068416821F0E0014160AA
:103C20006068B0F5827F0BD1A068B0F5004F02D07C
:103C3000B0F5806F04D12068016821F04001016077
:103C4000A06AB0F5005F09D12068016821F4005135
:103C500001602068016841F400510160012084F88E
:103C60005100002084F850000320D2E70120CDE766
:103C7000F0B5026A22F001020262036A42688469B6
:103C8000124E24F073050C682C4323F002058B6858
:103C90002B430D4DA84201D0B04205D123F00807B7
:103CA000CB683B4323F00403A84201D0B04205D1C6
:103CB0004D6922F4407215438A692A434260846147
:103CC000496841630362F0BD000001400004014007
:103CD000F0B5026A22F480720262026A4368C46923
:103CE00022F4007224F073050C68124E2C438D6888
:103CF00042EA05220E4DA84201D0B04206D1CF685B
:103D000022F4006242EA072222F48062A84201D033
:103D1000B04207D14D6923F4405343EA05138D693E
:103D200043EA05134360C4614968C1630262F0BDA0
:103D3000000001400004014030B5026A22F48052C4
:103D40000262046A4268C3690D6823F4E64343EAE9
:103D500005238D6824F4005444EA0534084DA84234
:103D600002D0084DA84204D14D6922F4804242EAB3
:103D700085124260C36149680164046230BD00007D
:103D80000000014000040140826822F070020A43F2
:103D900042F007018160704710B5036A046A24F09D
:103DA00001040462846924F0F00444EA021423F05C
:103DB0000A020A438461026210BD10B5036A23F04F
:103DC000100303628369046A23F4704343EA0232F6
:103DD00024F0A00343EA01118261016210BD0000DA
:103DE0002DE9F041044600680169E26821F4405180
:103DF000114301612169A068E269084361691143C7
:103E000008432168CA6849F20C639A430243CA60B6
:103E100020684169A26921F4407111434161E06960
:103E2000192764253226B0F5004F354A35492068F8
:103E30004FF0000806D0884201D0904236D1FDF7FD
:103E400095FA35E0884201D0904202D1FDF78EFA12
:103E500001E0FDF77BFA61684A18A0FB070148EB17
:103E60000803FCF7AFF90146B0FBF5F00201B1FB26
:103E7000F5F06FF01803584301EB800006EBC0002B
:103E8000B0FBF5F000F0F80002EB4002B1FBF5F0FA
:103E9000584301EB800006EBC000B0FBF5F000F0EA
:103EA0000700216810448860BDE8F081FDF74EFAF4
:103EB00061688B0F8A00A0FB0701FCF783F90146BC
:103EC000B0FBF5F06FF01802504301EB800006EBF9
:103ED0000010B0FBF5F000F0F002B1FBF5F002EBE2
:103EE0000012B1FBF5F06FF01803584301EB8000AE
:103EF00006EB0010B0FBF5F000F00F00D1E700007A
:103F0000001401400010014010B590F83A10222929
:103F100001D0022010BD8168B1F5805F11D0016928
:103F2000002901681FD0496801F07F03816A4A1C9B
:103F300082620B70C18D491E0904090CC18518D01D
:103F40002BE00269816A002A0268526805D0D2B269
:103F50000A80816A491C8162ECE7C2F308020A8088
:103F6000816A891CF7E74A68816A4B1C83620A7080
:103F7000E0E70168CA6822F02002CA600168CA68E6
:103F800022F48072CA6001684A6922F001024A6123
:103F9000202180F83A10FEF7F3FA002010BD90F8C7
:103FA0003910212901D0022070478168B1F5805F66
:103FB000016A0BD04A1C0262026809785160C18C08
:103FC000491E0904090CC1840ED017E00988026853
:103FD000C1F30801516001690029016A02D0491C3E
:103FE0000162ECE7891CFBE70168CA6822F08002E5
:103FF000CA600068C16841F04001C160002070479C
:104000000168CA6822F49072CA6001684A6922F0A5
:1040100001024A61202180F83A10704710B5806B88
:104020000021C185C184FEF70AF910BD0907090EF8
:10403000002804DB00F1E02080F80014704700F055
:104040000F0000F1E02080F8141D704710B5032424
:1040500004710173C0E9042349001A44514381618A
:1040600010BD022202718160704710B50446D4E988
:104070000801FEF74FF8A16A206AFEF74BF8E16AE3
:10408000206ABDE81040FEF745B8000070B5044650
:104090000079FF2601285AD0022803D000250328E2
:1040A00034D056E0FCF77CFD014600222046A36890
:1040B00000F0A2F800EE100AA068B0EE001AF8EEC8
:1040C000400A410800EE101AF8EE401A9FED460A29
:1040D000F4EEE01AF1EE10FA01EE900AF8EE611A31
:1040E00080EEA12A06DD62EE010A20EE800ABCEE17
:1040F000C00A07E022EE011AF0EE400A41EE400A43
:10410000BCEEE00A10EE100A207023E0FCF748FD38
:10411000E169401AA169884203D9FCF741FDE061D9
:1041200018E0FCF73DFDE1692269411A207B40005F
:10413000504381420DD8FCF733FDE169411A2069F3
:104140004200B1FBF2F302FB1311814201D9267048
:1041500000E025706078217810FB01F2234B1A8073
:10416000A078217810FB01F15980E078257810FBC8
:1041700005F09880636ACBB1042B1BD0082B236A0F
:104180001B681BD01A64A26AD2B1042A1CD0082A68
:10419000226A12681CD01164E16AD9B104291DD0C9
:1041A0000829216A09681DD0086470BD236A1B684C
:1041B0005A63E8E7236A1B689A63E4E7DA63E2E795
:1041C000226A12685163E7E7226A12689163E3E7A3
:1041D000D163E1E7216A0968486370BD216A096813
:1041E000886370BDC86370BD00007F433800002045
:1041F00041708270C370704708469A4206D2991A7D
:10420000984201D803E0401A9842FCD87047904287
:1042100001D3704708449042FCD370470449896831
:10422000016208214162042181620021C16270475C
:104230003800002002E008C8121F08C1002AFAD185
:1042400070477047002001E001C1121F002AFBD116
:104250007047000010B50448FFF7E0FF0248BDE8D2
:1042600010403030FFF78EB970000020FCF742FF9D
:10427000FFF77CF8FEF72AFAFEF7EAF9FEF75EFB95
:10428000FEF790FBFEF736FCFEF77EF9FEF7AEF97F
:10429000FEF7D4FBFEF7A4FCFEF7DCFCFEF7BCFC4B
:1042A000FEF7D6FAFEF7F4FAFEF716FB2048FDF704
:1042B00009FD2048FDF7F4FC1F48FDF7F1FC1F48FD
:1042C000FDF7EEFC00211B48FDF724FF00211B48F1
:1042D000FDF720FF04211948FDF71CFF08211748AE
:1042E000FDF718FF16480068C16841F01001C16071
:1042F00014480168CA6842F02002CA600068C168B8
:1043000041F01001C160FEF761FE0F48FFF7ADFEFE
:10431000FF231A4619460C48FFF76AFF0A48303057
:10432000FFF70AF9FEF799FD0028FBD1FEE7000030
:10433000F00200203003002070030020B0030020B2
:1043400030040020B0040020700000200006101689
:104350000006101600000000000000000102030427
:104360000607080900000000010203040B080141D0
:10437000090242C0030A0B049C430008000000200D
:1043800070000000344200080C4400087000002057
:10439000B009000044420008BDFEFFFF000000001D
:1043A000000000000000000000000000010000000C
:1043B00010000000000000000024F4003C01002078
:1043C00008000000F400002011000000F4000020AC
:1043D000100000000000000000000000700300203A
:1043E000E7416B3A58A08B3A7D04017C000240AB58
:1043F000034100055308065804070F0008108209FE
:0C44000011000A15800B16000C18010DAD
:040000050800018965
:00000001FF
