:020000040800F2
:1000000080080020A1010008532700089121000862
:1000100051270008D1020008012900080000000053
:10002000000000000000000000000000572700084A
:10003000F9020008000000005527000859270008B1
:10004000BB010008BB010008BB010008BB010008A0
:10005000BB010008BB010008FB020008BB0100084F
:10006000BB01000801030008BB010008BB01000838
:10007000D5020008BB010008BB010008BB01000855
:10008000BB010008BB010008BB010008BB01000860
:10009000BB010008BB010008BB010008BB01000850
:1000A000BB01000879270008BB010008BB0100085C
:1000B000BB010008BB010008BB010008BB01000830
:1000C000BB010008BB010008BB010008BB01000820
:1000D000BB010008E9280008BB010008BB010008BB
:1000E000BB010008BB010008BB010008BB01000800
:1000F000BB010008BB010008BB010008BB010008F0
:10010000BB010008BB010008BB010008BB010008DF
:10011000BB010008BB010008BB010008BB010008CF
:10012000BB010008BB010008E1020008BB01000898
:10013000BB010008BB010008BB010008BB010008AF
:10014000BB010008BB010008BB010008BB0100089F
:10015000BB010008BB010008ED020008F5280008FB
:10016000BB010008BB010008BB010008BB0100087F
:10017000BB010008BB010008BB0100080000000033
:10018000BB010008BB010008DFF810D000F08EF8BA
:1001900000F05CF800480047D537000880080020D0
:1001A0000648804706480047FEE7FEE7FEE7FEE711
:1001B000FEE7FEE7FEE7FEE7FEE7FEE75D27000855
:1001C000890100082DE9F05F0546002092469B4614
:1001D00088460646814640241BE02846414647465D
:1001E000224600F052F853465A46C01A914110D3A5
:1001F00011461846224600F039F82D1A67EB01081F
:100200004F4622460120002100F030F817EB00098C
:100210004E41201EA4F10104DFDC484631462A4647
:100220004346BDE8F09FD2B201E000F8012B491E21
:10023000FBD270470022F6E710B513460A46044683
:100240001946FFF7F0FF204610BD000070B5054CC1
:10025000054D03E0206820448047241DAC42F9D1BD
:1002600070BD0000F0380008F4380008202A04DBD4
:10027000203A00FA02F1002070479140C2F12003B9
:1002800020FA03F3194390407047202A04DB203AF8
:1002900021FA02F00021704721FA02F3D040C2F1A6
:1002A000200291400843194670470000064C074D54
:1002B00006E0E06840F0010394E807009847103436
:1002C000AC42F6D3FFF764FFD0380008F0380008DE
:1002D000FEE70000014800F005BA0000100400200D
:1002E000014800F0FFB90000B0030020014800F011
:1002F000F9B90000500300207047012000F04CBB0A
:10030000082000F049BB72B6FEE7000078B5002473
:10031000009490F83C20012A19D0012280F83C205A
:100320000A6807230568092A13D9EE680A3A02EB1E
:10033000420293409E43EE600B788A680A3B03EBCF
:1003400043039A400368DD682A43DA6010E0022024
:1003500078BD2E6902EB420293409E432E610B78DA
:100360008A6803EB43039A4003681D692A431A61B4
:100370004A681F23072A13D205686E6B521E02EBD0
:10038000820293409E436E630B790A885B1E92B291
:1003900003EB83039A4003685D6B2A435A6327E0AB
:1003A00005680D2A12D22E6BD21F02EB82029340F7
:1003B0009E432E630B790A88DB1F92B203EB830303
:1003C0009A4003681D6B2A431A6311E0EE6A0D3AE6
:1003D00002EB820293409E43EE620B790A880D3B4A
:1003E00092B203EB83039A400368DD6A2A43DA6220
:1003F000164B0568144A9D4206D10D68122D03D193
:10040000556845F48005556005689D4218D10B6814
:10041000102B01D0112B13D1536843F40003536008
:10042000096810290CD10A490A4A0968B1FBF2F19E
:1004300001EB8101490000E0491E00910029FBD138
:1004400080F83C40002078BD00230140002001409E
:100450001800002040420F000068C06C704770B563
:1004600004004FF0000503D0206C002610B107E017
:10047000012070BD204600F01DF8666484F83C60E1
:10048000206CC00610D4206C20F4885040F002008C
:100490002064204602F0E6FB6664206C20F0020037
:1004A00040F00100206400E0012584F83C6028460B
:1004B00070BD000010B586B0044614216846FFF7F1
:1004C000B9FE174B2268002116489A4209D10168EB
:1004D00041F480710160006800F48070059006B0FE
:1004E00010BD114B9A42FAD1026842F48062026058
:1004F000006800F4806005900A481438026842F0F1
:1005000020020260006800F020000590181500909D
:100510000320CDE901016946044800F049FADEE70D
:1005200000200140443802400022014000140240F3
:100530002DE9F041044600680D4681684FF0000740
:1005400049050BD58068C00508D5206C40F0200017
:10055000206484F83C700120BDE8F08100F00EFBBF
:1005600006460FE0681C0DD025B100F007FB801B8C
:10057000A84207D9206C40F00400206484F83C7045
:100580000320E9E7206800688007EBD521686FF059
:1005900012000860206C40F40070206420688168BC
:1005A00011F0405F13D1217E89B9C16A11F4700F37
:1005B00002D0806840050AD4206C20F4807020644A
:1005C000206CC00403D4206C40F0010020640020A3
:1005D000C2E7000018B50021009190F83C20012AE4
:1005E00007D0012280F83C2002689368DB0702D024
:1005F00011E0022018BD936843F0010393602A4A7A
:100600002A4B1268B2FBF3F202EB420200E0521EE8
:100610000092002AFBD102689368DB0741D0036C8B
:1006200040F20164A34343F48073036453685B05A1
:1006300005D5036C23F4005343F480530364036C27
:10064000DB0404D5436C23F00603436400E04164FB
:1006500080F83C1016496FF0220313604968006867
:10066000CA06144906D088421BD1816811F0405F48
:1006700013D016E08842F8D00F4A904203D1D1F847
:100680000423D206F1D00D4A90420AD1D1F80413C6
:1006900001F01F011029E8D303E0816841F0804197
:1006A0008160002018BD00001800002040420F00AB
:1006B00000230140002001400021014000220140B0
:1006C00090F83510022903D0802141650120704740
:1006D000052180F835100068016821F001010160F2
:1006E000002070472DE9F84304464FF00009CDF88B
:1006F000009063484FF41651A56D0068B0FBF1F708
:100700002E6894F85C10082000FA01F131420FD0F5
:1007100021680A6852070BD50A6822F004020A60B1
:1007200094F85C108840A860606D40F0010060653E
:1007300094F85C104FF0010808FA01F0304208D03C
:1007400021684969090604D5A860606D40F002007F
:10075000606594F85C1004208840304208D021681D
:100760000968890704D5A860606D40F004006065E1
:1007700094F85C1010208840304218D02168096835
:10078000090714D5A86020680168490304D50068EA
:10079000000308D5A16C07E00168C90503D401680E
:1007A00021F008010160216C09B12046884794F8C6
:1007B0005C1020208840304231D021680968C90689
:1007C0002DD5A86094F8350005282068016806D06A
:1007D000490347D5006800031DD4616C1CE021F07B
:1007E000160101602068416921F080014161206C9F
:1007F00008B9A06C20B12068016821F008010160EF
:1008000094F85C103F208840A86084F8349084F805
:100810003580216D1FE0E16B09B120468847606D8E
:1008200000282BD0606DC00714D0052084F8350057
:100830002068016821F0010101600098401C0090CF
:10084000B84203D820680068C007F6D184F8349015
:1008500084F83580E16C002910D001B02046BDE855
:10086000F04308470168C905D5D4016821F010019B
:10087000016084F8349084F83580CCE7BDE8F883D3
:10088000180000202DE9F041044600F077F90646F3
:100890005CB1002584F83450022084F835002068CB
:1008A000016821F0010101600DE00120BDE8F08147
:1008B00000F064F9801B052805D92020606503201D
:1008C00084F83500F2E720680068C007F0D122689C
:1008D000116820480140D4E901031843D4E90336E4
:1008E0003343184363691843A3691843E369184302
:1008F000236A18430843616A042903D1D4E90B131E
:1009000019430843106020684069666A20F00701B7
:1009100030460E43012704280CD1A06A0643E06A42
:1009200040B1204602F032FA20B14020606584F8E0
:100930003570BAE720684661204602F051FA94F813
:100940005C203F2191408160656584F8357000200E
:10095000ACE700003F8010F070B5044600F00EF9DF
:100960000546601C02D004480078044400F006F9F3
:10097000401BA042FAD370BD0C000020082806D10D
:1009800003480168491C0160024802F023B870471F
:1009900000000020A0000020044910B50A680242AF
:1009A00002D00860FFF7EAFF10BD0000143C0140D0
:1009B0002DE9F84F00224FF0010803254FF00F0EEC
:1009C0000B6808FA02F42340A3426ED14E68012E50
:1009D00005D0022E03D0112E01D0122E12D186681E
:1009E0004FEA420C05FA0CF7BE43CF6807FA0CF742
:1009F000374387604668A6430C79C4F300149440DB
:100A000034434460C668570005FA07FC8C6826EA40
:100A10000C06BC403443C4604C68022C01D0122C3C
:100A200013D1D40800EB8404A346D4F820905407D3
:100A30004FEAD46A0EFA0AF629EA06090E6906FA9E
:100A40000AF646EA0906CBF8206006680C7926EA21
:100A50000C0604F00304BC40344304604C68E4001A
:100A600065D5364C266846F480462660246822F018
:100A7000030604F480440094314C3444A446D4F872
:100A800008489607370F0EFA07F6B4432D4EB042CA
:100A900001D1002624E02C4EB04201D101261FE0F6
:100AA0002A4EB04202D102261AE040E0284EB0425F
:100AB00001D1032614E0274EB04201D104260FE0F5
:100AC000254EB04201D105260AE0244EB04201D1A4
:100AD000062605E0224EB04201D1072600E0082696
:100AE000BE402643CCF808681E4E34684F689C43CD
:100AF000FF0300D51C4334601A4C241D26684F6840
:100B00009E43BF0300D51E432660164E0836346848
:100B10004F689C43FF0200D51C433460114E0C36D5
:100B200034684F689C43BF0200D51C433460521C9C
:100B3000102AFFF445AFBDE8F88F000044380240AA
:100B40000030014000000240000402400008024062
:100B5000000C024000100240001402400018024045
:100B6000001C0240003C01400069084000D0012008
:100B700070470AB1816170470904FBE7014880684A
:100B8000704700000C00002070B5040025D094F8D8
:100B90003D00002520B984F83C50204600F04CFA76
:100BA000242084F83D002068016821F001010160E3
:100BB0002068016841F4004101602068016821F467
:100BC0000041016000F0B0FB4D4A6168914201D8DC
:100BD0004C4900E04C49884201D2012070BD4B498C
:100BE0002368B0FBF1F15E6826F03F060E435E60BD
:100BF0006368934206D94FF4967359434FF47A735E
:100C0000B1FBF3F12368491C1E6A26F03F0631430D
:100C100019626168914210D84900401EB0FBF1F2A0
:100C2000521CC2F30B02042A01D2042022E0B0FBC2
:100C3000F1F0401CC0F30B001CE0A268F2B301EB22
:100C4000C10303EB0116431EB3FBF6F35B1C43F435
:100C500080431B0549D092B301EBC10202EB0111A5
:100C6000401EB0FBF1F0401CC0F30B0040F480408C
:100C700040F400402168CA694CF6FF739A43104360
:100C8000C861D4E9071001432068026822F0C0025D
:100C900011430160D4E9030101432068826848F2EE
:100CA000FF339A4311438160D4E905010843216869
:100CB000CA6822F0FF021043C86001E00EE016E0AF
:100CC0002068016841F0010101602564202084F85A
:100CD0003D00256384F83E50002070BD01EB4106C5
:100CE000431EB3FBF6F35B1CB3E70120C2E701EB45
:100CF0004101401EB0FBF1F0401CC0F30B00B7E710
:100D0000A086010080841E0000093D0040420F00C3
:100D10002DE9FF4F83B09A46DDE9119793460446CB
:100D2000DDF84080FFF72AFF054694F83D002028B3
:100D300070D11923012271492046009502F04DF926
:100D40000028F5D194F83C00012863D0012084F8F4
:100D50003C0020680168C90703D1016841F0010126
:100D600001602068016821F400610160222084F89C
:100D70003D00402084F83E0000262664C4F824800C
:100D8000A4F82A90608D20855D48E062CDE9007569
:100D900053465A462046049902F036F800287CD182
:100DA000208DD0B1012821D00228206824D04169AB
:100DB00080690090208D032869D801282BD05149E3
:100DC00002283B464FF00002009559D08846204645
:100DD00002F003F9002860D13CE020684169816994
:100DE0000091016841F40071016077E020680168BA
:100DF00021F480610160F0E7016821F48061016005
:100E00002068016841F400610160206841698069DF
:100E1000009063E06FE02A463946204602F05DF913
:100E200098BB20680069616A08704EE0206801681C
:100E300041F40071016020680069616A0870606AAD
:100E4000401C6062218D491E2185618D491E61858E
:100E5000216838E02068016821F480610160206821
:100E60000069616A0870606A401C6062208D401EE3
:100E70002085608D401E60853B46002241460095DE
:100E8000204602F0AAF800B9D0E706E0FFE72A46BC
:100E90003946204602F021F918B1012007B0BDE81B
:100EA000F08F20680069616A0870606A401C6062A7
:100EB000218D491E2185618D491E618521684A6900
:100EC000D24352070AD409690170606A401C60620B
:100ED000208D401E2085608D401E6085208D00285D
:100EE0007FF468AF202084F83D0084F83E6084F8E9
:100EF0003C600020D2E70220D0E700000200100092
:100F00000000FFFF040001002DE9FF4F83B09A4667
:100F1000DDE9119793460446DDF84080FFF72EFE89
:100F2000054694F83D0020287FD11923012240492D
:100F30002046009502F051F8002876D194F83C0044
:100F4000012872D0012084F83C0020680168C9079C
:100F500003D1016841F0010101602068016821F4BA
:100F600000610160212084F83D00402084F83E00AB
:100F700000262664C4F82480A4F82A90608D208579
:100F80002C48E062CDE9007553465A462046049944
:100F900001F0B8FF70B930E02A463946204602F029
:100FA00076F858B1206C042804D12068016841F417
:100FB00000710160012007B0BDE8F08F606A216810
:100FC00000780861606A401C6062218D491E89B208
:100FD0002185628D521E628522685369DB435B075F
:100FE0000BD469B100781061606A401C6062208D8A
:100FF000401E2085608D401E6085208D0028CBD14D
:101000002A463946204602F01CF80028CAD154F876
:101010003D0B016841F400710160202004F81E09B5
:10102000E67766770020C6E7FFE70220C3E7000007
:10103000020010000000FFFFF0B587B00446142145
:101040006846FFF7F7F81A49206888422DD11948F9
:10105000016841F004010160016801F0040105919B
:10106000016841F0010101600068122400F00100F4
:1010700005904FF400700125032604278DE8F10048
:1010800069460D48FFF794FC28028DE8F100694697
:101090000A48FFF78DFC07481030016841F4000151
:1010A0000160006800F40000059007B0F0BD00008A
:1010B000005C00403038024000080240000002405E
:1010C0000248816802781144816070470C0000205A
:1010D0000B4810B5016841F400710160016841F4EA
:1010E00080610160016841F480710160032000F0BB
:1010F0006FF8002000F006F800F024F8002010BD82
:10110000003C024070B50D4D04464FF47A712878CA
:10111000B1FBF0F00A490968B1FBF0F000F004FB04
:1011200048B9102C07D200222146501E00F030F89A
:1011300000206C6070BD012070BD00000C0000201C
:10114000180000200A4808B5016841F48041016098
:10115000006800F4804000900548001F016841F0DD
:1011600080510160006800F08050009008BD0000D0
:1011700044380240002809DB00F01F0201219140A1
:101180004009800000F1E020C0F800117047000025
:10119000F0B40E4B1B680C46C3F30223C3F10705E2
:1011A000042D00D90425191D072901D2002300E0D0
:1011B000DB1E012606FA05F1491E214099409E409A
:1011C000761E16403143F0BC02F0E4B90CED00E0AD
:1011D000064900F0070208684FF6FF03184040EA8E
:1011E0000220034A10430860704700000CED00E045
:1011F0000000FA052DE9F0470E46050065D0DFF83E
:101200001481D8F80000F7B200F00F00B04207D206
:1012100088F80070D8F8000000F00F00B04254D1F8
:1012200028683D4C810712D5400703D5206840F45B
:10123000E05020602878000703D5206840F4604023
:1012400020602068A96820F0F0000843206028781A
:10125000C0072DD0304968680839012812D002280B
:1012600013D0032811D00968890700292DDA2168D5
:1012700021F0030101432160FFF780FC814641F228
:10128000883A0EE009688903EFE709688901ECE70D
:10129000FFF774FCA0EB0901514502D90320BDE81A
:1012A000F0872068696800F00C00B0EB810FEFD187
:1012B000D8F80010404601F00F01B14207D907707D
:1012C000006800F00F00B04201D00120E7E7287865
:1012D000400705D52068E96820F4E0500843206005
:1012E0002878000706D52068296920F4604040EA84
:1012F000C100206000F038F82168084AC1F30311EA
:10130000515CC8400649086006480068FFF7FAFECD
:101310000020C4E7003C024008380240AC38000816
:1013200018000020100000200448054900680968E2
:10133000044AC1F38221515CC84070471800002064
:1013400008380240BC3800080448054900680968AC
:10135000044AC1F34231515CC84070471800002074
:1013600008380240BC380008154810B5006810F075
:101370000C02144813D01449042A0FD0082A0ED1A5
:101380000F4C241F2268236802F03F025B0207D53E
:101390002068C0F38810A0FB010106E0084610BDDC
:1013A0002168C1F38811A1FB00010023FEF70AFFA9
:1013B0002168C1F30141491C4900B0FBF1F010BDA7
:1013C000083802400024F400001BB7002DE9F84F54
:1013D00004006ED02078DFF83C93C007A9F1040523
:1013E0004AD009F104000168C1F38101012908D044
:1013F0000068C0F3810002280AD1D9F80000400239
:1014000006D52868800337D560680028E1D033E02E
:101410006068B0F5803F10D0B0F5A02F286810D0DC
:1014200020F480302860286820F4802028606068DC
:10143000A8B1FFF7A3FB06460DE0286840F4803012
:10144000F4E740F480202860F7E700BFFFF796FB41
:10145000801B642873D828688003F7D50CE0FFF759
:101460008DFB064605E000BFFFF788FB801B642864
:10147000F0D828688003F7D42078DFF89C828007B2
:101480004FF0000A3ED5A348001D016811F00C0F73
:1014900008D00068C0F3810002280BD1D9F8000001
:1014A000400207D42868800716D5E068012800D1DB
:1014B00012E02BE1E068B8B10120C8F80000FFF7A6
:1014C0005DFB064605E000BFFFF758FB801B0228C6
:1014D000C0D828688007F7D52868216920F0F8006F
:1014E00040EAC10028600DE0C8F800A0FFF746FB05
:1014F000064604E0FFF742FB801B02281FD828683D
:101500008007F7D42078000722D5824E834861698E
:10151000703671B101210160FFF730FB074604E02E
:10152000FFF72CFBC01B022809D830688007F7D5CD
:101530000EE0C0F800A0FFF721FB074605E082E0BF
:10154000FFF71CFBC01B02287DD830688007F7D44A
:101550002078400768D5DFF8BCB100270BF13C0BC1
:10156000DBF80000C0000BD4DBF8001041F0805124
:10157000CBF80010DBF80000012700F0805000904D
:10158000674E3068C00510D4306840F48070306019
:10159000FFF7F4FA009005E0FFF7F0FA0099401A1F
:1015A000022850D83068C005F6D55A4EA0686C366F
:1015B00001280FD00528306810D020F001003060DD
:1015C000306820F004003060A068B8B1FFF7D6FAA8
:1015D00000900FE0306840F00100F4E740F00400B4
:1015E0003060F7E7FFF7CAFA0099411A41F28830F4
:1015F000814266D830688007F4D50EE0FFF7BEFA66
:10160000009007E0FFF7BAFA0099411A41F28830DA
:10161000814256D830688007F4D42FB1DBF800102F
:1016200021F08051CBF80010A069C8B33949091DD9
:101630000968C1F3810102294AD00228504607D027
:10164000C8F8600000E03CE0FFF798FA04463BE091
:101650004746C8F86000FFF791FA064605E000BF6C
:10166000FFF78CFA801B02282BD828688001F7D45A
:10167000D4E907010843A16A2A4A490802EB01415B
:10168000626A41EA8211084394F82C1040EA016131
:10169000C9F8001001203866FFF770FA044606E02A
:1016A00036E000BFFFF76AFA001B022809D8286855
:1016B0008001F7D52CE000BFFFF760FA001B02287D
:1016C00002D90320BDE8F88F28688001F4D41FE018
:1016D0000128F7D0D9F80000E26900F480019142B6
:1016E00014D1226A00F03F0191420FD147F6C07138
:1016F000626A0140914209D1A26A00F440319142EC
:1017000004D1E16A00F07060884201D00120D9E77D
:101710000020D7E70438024000004742800E4742CD
:10172000007000400000FFFF10B5401EB0F1807F48
:1017300001D3012010BD4FF0E02460610F2160173C
:1017400001F028FF0020A06107202061002010BDCB
:101750007047704710B590F83C20012A22D0012232
:1017600080F83C20CA688C6822F4407222434C689E
:1017700022F4806222430C6822F4006222430C6946
:1017800022F4805222434C6922F400522243C96958
:10179000002322F480420A4301684A6480F83C3006
:1017A000002010BD022010BD70B590F83C20012A29
:1017B00032D0012480F83C40022280F83D200368AA
:1017C0005A689D6822F070060A6832435A60134BCB
:1017D00002689A4214D0B2F1804F11D0104B9A4255
:1017E0000ED0104B9A420BD00F4B9A4208D00F4BA1
:1017F0009A4205D00E4B9A4202D00E4B9A4204D127
:10180000496825F080031943916080F83D4000212C
:1018100080F83C10084670BD022070BD00000140F9
:101820000004004000080040000C0040000401409B
:10183000004001400018004010B5040003D094F8A7
:101840003D0010B107E0012010BD002084F83C00ED
:10185000204600F00DF8022084F83D00211D20688C
:1018600000F090FF012084F83D00002010BD000032
:1018700008B51D4902681D488A4211D1016841F02E
:10188000010101600068002200F001000090114693
:101890001920FFF77DFCBDE808401920FFF76ABC5E
:1018A0001249134B091F9A4207D1086840F00400FF
:1018B0000860086800F0040009E00E4B9A4208D165
:1018C000086840F008000860086800F00800009010
:1018D00008BD09498A42FBD1016841F0020101605B
:1018E000006800F00200F2E70000014044380240C6
:1018F00000080040000C004000040140022180F874
:101900003D1001688A6802F00702062A03D00A68BF
:1019100042F001020A60012180F83D10002070476A
:101920000168CA6842F00102CA600068816801F07B
:101930000701062903D0016841F001010160002080
:10194000704770B5044690F83C00012817D0012577
:1019500084F83C50022084F83D002068826822F020
:10196000770222F47F4282600868502830D00DDC74
:1019700020284DD005DC98B310283BD148E0022048
:1019800070BD302844D0402834D139E0602828D0B8
:10199000702806D0B0F5805F2CD0B0F5005F29D15B
:1019A0000AE0CB68D1E90121206800F05CFF2068E3
:1019B000816841F0770109E0CB68D1E90121206815
:1019C00000F051FF2068816841F48041816011E09E
:1019D000CA684968206801F093FC5021206807E03C
:1019E00016E0CA684968206801F09BFC6021206805
:1019F00001F07EFC84F83D50002084F83C0070BD6E
:101A0000CA684968206801F07BFC40212068EFE744
:101A1000226801461046EBE7704770B5044600683F
:101A200001694FF00005C943890715D4C168C9434E
:101A3000890711D4E91E016101202077206880699F
:101A40008007204602D0FFF7E7FF04E000F0F0F83F
:101A5000204600F072F9257720680169C9434907DB
:101A600017D4C168C943490713D46FF00401016159
:101A7000022020772068806910F4407F204602D041
:101A8000FFF7CAFF04E000F0D3F8204600F055F954
:101A9000257720680169C943090716D4C168C9437D
:101AA000090712D46FF00801016104202077206833
:101AB000C0698007204602D0FFF7AEFF04E000F0C7
:101AC000B7F8204600F039F9257720680169C94345
:101AD000C90617D4C168C943C90613D46FF01001F1
:101AE0000161082020772068C06910F4407F2046FB
:101AF00002D0FFF791FF04E000F09AF8204600F0D2
:101B00001CF9257720680169C943C90708D1C16854
:101B1000C943C90704D1891E0161204600F030F98C
:101B200020680169C943090609D4C168C943090687
:101B300005D46FF0800101612046FFF709FE20689F
:101B40000169C943490609D4C168C943490605D496
:101B50006FF040010161204600F07CF920680169C6
:101B6000C94389060BD4C168C943890607D46FF0FD
:101B7000200101612046BDE87040FFF7EABD70BD5D
:101B800010B586B0044614216846FEF753FB23685F
:101B9000204C002220480221A3420FD1036843F0C9
:101BA00008030360006800F00800059048038DE812
:101BB0000700CDE903216946184812E0184CA342FA
:101BC00013D1036843F080030360006800F08000D5
:101BD00005904FF4E0508DE80700CDE903216946F8
:101BE0001048FEF7E5FE06B010BD0F4CA342FAD137
:101BF000036843F480730360006800F4807005900C
:101C0000E0208DE807000320CDE90320694607485E
:101C1000E7E700000008004030380240000C0240B6
:101C2000000C0040001C0240000401400020024063
:101C3000704770B5044690F83C000D4601280DD061
:101C4000012684F83C60022084F83D0042B1042A59
:101C500018D0082A2AD00C2A4DD139E0022070BDB4
:101C6000206801F0B9FA2068816941F008018161BA
:101C70002068816921F004018161206881692A69F5
:101C8000114311E0206800F0F9FD2068816941F4FA
:101C9000006181612068816921F48061816120682F
:101CA00081692A6941EA0221816124E0206801F00A
:101CB000C3FA2068C16941F00801C1612068C169A7
:101CC00021F00401C1612068C1692A69114311E052
:101CD000206801F0E5FA2068C16941F40061C16142
:101CE0002068C16921F48061C1612068C1692A69E5
:101CF00041EA0221C16184F83D60002084F83C0083
:101D000070BD10B5040003D094F83D0010B107E099
:101D1000012010BD002084F83C00204600F00CF8A3
:101D2000022084F83D00211D206800F02BFD0120D9
:101D300084F83D00002010BD7047704710B5044680
:101D40000068012200F082FD0B492068884202D021
:101D50000A49884203D1416C41F400414164206842
:101D6000816801F00701062903D0016841F00101F3
:101D70000160002010BD000000000140000401408F
:101D800070B5304988425CD12F4C6068401C64219A
:101D900090FBF1F2606001FB120028B92B4800F0C3
:101DA00003FF2A4800F0E0FE606842F210718842AA
:101DB0000DD126484FF47A71303801F006FC2348E3
:101DC00000231A46FF21303801F0C6FC2BE0A0F5B5
:101DD0009C42203A0ED01D4D41F28832303D904257
:101DE00017DAFF231A461946284601F0B5FC0120F0
:101DF000287118E015480022FF231146303801F001
:101E0000ABFC124832231A460521303801F0D2FBD0
:101E100009E00022884201DA2A7104E047F23051D9
:101E2000884200DB626008210948FEF79DFE10B978
:101E3000A068401CA060BDE870400448303801F044
:101E4000D9BB70BD90010020000000207000002070
:101E5000001802407047704770B502680446106869
:101E6000D168536910F00F0F52D003F0010501F44F
:101E700090762E435FD0C20705D0CA0503D5E26B2A
:101E800042F00102E263420705D5DA0703D0E26BB4
:101E900042F00202E263820705D5DA0703D0E26B63
:101EA00042F00402E263020707D501F020022A4350
:101EB00003D0E26B42F00802E263E26B002A33D007
:101EC000800604D5880602D5204601F0D1FA2068A4
:101ED0004069E16BC0F38010090700D428B32046A5
:101EE00001F042FB2068416949061AD5416921F099
:101EF00040014161606BA0B11B490165606BFEF759
:101F0000DFFB002810D0606B016DBDE87040084712
:101F1000830610D58B060ED52046BDE8704001F033
:101F2000A7BA2046FFF797FF70BD2046FFF793FF43
:101F30000020E06370BD030606D50B0604D52046DD
:101F4000BDE8704001F0DFBA4006F3D54806F1D590
:101F5000D168204621F04001D160202184F8391059
:101F600000F015F970BD00008535000870B504005B
:101F700004D094F83900002510B106E0012070BDAE
:101F800084F83850204600F023F8242084F83900E3
:101F90002068C16821F40051C160204601F0D4F9E5
:101FA0002068016921F4904101612068416921F0B4
:101FB0002A0141612068C16841F40051C160E563B4
:101FC000202084F8390084F83A00002070BD000019
:101FD0002DE9F04786B0064614216846FEF72AF937
:101FE0006148DFF880810222D6F800C05E491438CB
:101FF00003230725002497064FF480694FF4403AE5
:10200000C4454ED1D1F800C04CF0100CC1F800C04E
:10201000096801F010010591016841F002010160B9
:102020000068694600F002000590C0208DE81500A8
:10203000CDE903354D48FEF7BBFC4E4D4C48B84644
:10204000E5E802074020A5E81102574645F8144983
:102050004848AC61C5E9074A6C62FEF713FC08B159
:10206000FEF751F93563AE63424D4148603578382B
:102070002860C5E90184C5E903496C61AC61C5E923
:10208000074728466C62FEF7FDFB08B1FEF73BF9F7
:102090007563002211462520AE63FFF779F82520ED
:1020A0005DE0DFF8D480C44535D12F49091FD1F850
:1020B00000C04CF4802CC1F800C0096801F48021F4
:1020C0000591016841F0040101600068694600F073
:1020D000040005904FF440608DE81500CDE903350C
:1020E0002648FEF765FC234D2548C0352860C5E924
:1020F0000174C5E903496C61AC61C5E9074A28462A
:102100006C62FEF7BFFB08B1FEF7FDF87563AE63C6
:1021100006B0BDE8F0871B4DAC45F9D10D6845F020
:1021200020050D60096801F020010591016841F06A
:10213000400101600068694600F0400005904FF4DE
:1021400084408DE815000820CDE903300E48FEF7E5
:102150002FFC002211464720FFF71AF84720FFF70F
:1021600009F8D5E70010014044380240000402405D
:10217000B8640240500300200048004000080240BC
:102180002860024000140140001802407047704768
:10219000FEE700007FB500241548009401940294E6
:1021A0001249039401604FF48031C0E901140461C5
:1021B000047680F820400F49C0E90A140125C56162
:1021C000C46080F830404561FEF749F908B1FEF778
:1021D0009AF81120CDE90005694602940448FEF7FB
:1021E00095F8002801D0FEF78EF87FBD0020014051
:1021F000AC0000200100000F7FB5002415480094BA
:10220000019402941249039401604FF48031C0E9B3
:1022100001140461047680F820400F49C0E90A14D3
:102220000125C561C46080F830404561FEF717F9AB
:1022300008B1FEF768F80820CDE900056946029468
:102240000448FEF763F8002801D0FEF75CF87FBD74
:1022500000220140F40000200100000F154808B5DD
:10226000016841F480010160016801F4800100917E
:10227000016841F4001101600068002200F40010C0
:10228000009011460C20FEF783FF0C20FEF772FF32
:10229000002211463A20FEF77BFF3A20FEF76AFF44
:1022A000002211464620FEF773FFBDE80840462095
:1022B000FEF760BF3038024030B587B01421684661
:1022C000FDF7B8FF3948016841F04001016001683D
:1022D00001F040010591016841F0010101600168D0
:1022E00001F001010591016841F0020101600168FE
:1022F00001F002010591016841F0040101600168EB
:1023000001F004010591016841F4807101600168E8
:1023100001F480710591016841F08001016001685C
:1023200001F080010591016841F020010160016820
:1023300001F020010591016841F008010160006889
:102340001B4D00F008000590012240212846FEF7B1
:1023500010FC01244020CDE900040294694628467F
:102360000394FEF725FB082000901248CDE90104F4
:1023700069462846FEF71CFB0F486946CDE9004038
:102380000E480294FEF714FB002211460620FEF7C9
:10239000FFFE0620FEF7EEFE002211460920FEF7A2
:1023A000F7FE0920FEF7E6FE07B030BD30380240E8
:1023B000001802400000211000003110000002400F
:1023C0000D4810B50B4901600C49416000214FF4E4
:1023D00080428160C0E9031241618161C161016293
:1023E000FEF7D2FB002803D0BDE81040FDF78BBFFD
:1023F00010BD0000005C00403C010020801A060077
:1024000010B586B0002417480094019402940394F8
:10241000049413490594016040F28F61C0E90114EE
:102420006321C0E9031444618461FFF705FA08B130
:10243000FDF769FF4FF48050009069460948FFF7A7
:1024400080FA08B1FDF75FFF049404A905480594DC
:10245000FFF7AAF9002801D0FDF755FF06B010BD1F
:10246000000001409001002010B58EB000240794B8
:10247000089409940A940B941C2168460C94FDF767
:10248000D9FE1E481C49C0E9001445F20721C0E9E5
:10249000024104618461FFF7CFF908B1FDF733FF12
:1024A0004FF48050079007A91448FFF74AFA08B183
:1024B000FDF729FF1148FFF724FC08B1FDF723FFC2
:1024C0000B940BA90D480C94FFF76EF908B1FDF7BA
:1024D0001AFF6020CDE900040294082269460748EB
:1024E0000494FFF7A6FB08B1FDF70DFF0348FFF7C3
:1024F00047FB0EB010BD000000080040D0010020D6
:1025000010B58EB000240794089409940A940B9493
:102510001C2168460C94FDF78DFE26482449C0E92D
:1025200000144FF6FF71C0E9024104618461FFF7B6
:1025300083F908B1FDF7E7FE4FF48050079007A933
:102540001C48FFF7FEF908B1FDF7DDFE1948FFF75B
:10255000D8FB08B1FDF7D7FE0B940BA915480C94D6
:10256000FFF722F908B1FDF7CEFE6020CDE90004A7
:102570000294002269460F480494FFF75AFB08B101
:10258000FDF7C1FE042269460A48FFF752FB08B175
:10259000FDF7B9FE082269460648FFF74AFB08B175
:1025A000FDF7B1FE0348FFF7EBFA0EB010BD0000D7
:1025B000000C00401002002010B596B000240F94CB
:1025C00010941194129413941C2168461494FDF7EE
:1025D00031FE202107A8FDF72DFE31482F4901606B
:1025E000A721C0E9011444F61F61C0E90314446146
:1025F0008461FFF721F908B1FDF785FE4FF48050A3
:102600000F900FA92648FFF79CF908B1FDF77BFE54
:102610002348FFF776FB08B1FDF775FE139413A965
:102620001F481494FFF7C0F808B1FDF76CFE602056
:1026300000904FF4FA60CDE90104039404940594EA
:102640000022694616480694FFF7F3FA08B1FDF731
:102650005AFE042269461248FFF7EBFA08B1FDF76B
:1026600052FE082269460E48FFF7E3FA08B1FDF76B
:102670004AFE0794089409944FF400500A94CDE957
:102680000B4007A906480E94FFF764F808B1FDF760
:102690003AFE0348FFF774FA16B010BD000401407B
:1026A000500200200C4810B50A4901604FF4E13196
:1026B0004160002181600C22C160C0E90412816187
:1026C000C161FFF753FC002803D0BDE81040FDF7BF
:1026D0001ABE10BD00100140900200200C4810B539
:1026E0000A4901600B494160002181600C22C160F0
:1026F000C0E904128161C161FFF738FC002803D0F2
:10270000BDE81040FDF7FFBD10BD000000480040CF
:10271000D0020020A08601000C4810B50A490160D3
:102720004FF4E1314160002181600C22C160C0E9B9
:1027300004128161C161FFF719FC002803D0BDE8D4
:102740001040FDF7E0BD10BD001401401003002053
:10275000FEE7FEE770477047FEF7B2BC0548016828
:1027600041F47001016003494FF000608039086056
:102770007047000088ED00E00148FFF74EB9000007
:1027800090010020F0B50268254C264D264E274FBB
:10279000274B4FF0804CA04209D0604507D0A8429B
:1027A00005D0B04203D0B84201D0984204D122F003
:1027B000700E4A6842EA0E02A0421BD0604519D052
:1027C000A84217D0B04215D0B84213D0984211D0C9
:1027D000184DA8420ED0184DA8420BD0174DA84254
:1027E00008D0174DA84205D0164DA84202D0164D6C
:1027F000A84203D122F44075CA682A434D6922F0E9
:1028000080022A4302608A68C2620A688262A04229
:1028100001D0984201D10969016301214161F0BDF4
:10282000000001400004004000080040000C00408F
:1028300000040140004001400044014000480140C4
:1028400000180040001C00400020004010B501F0BE
:102850001F030121046A99408C430462016A9A4073
:102860001143016210BD10B5846842EA032224F4CA
:102870007F440A432243826010BD0000F0B5026A23
:1028800022F010020262026A436884690D6824F42F
:10289000E64444EA05248D6822F0200242EA05124B
:1028A0000F4D104EA84201D0B04206D1CF6822F0A1
:1028B000800242EA071222F04002A84201D0B04250
:1028C00007D14D6923F4406343EA85038D6943EAE8
:1028D000850343608461496881630262F0BD000042
:1028E00000000140000401400148FFF7B5BA0000B4
:1028F000900200200148FFF7AFBA0000100300204B
:10290000FEE700002DE9F041002400F08DF800F012
:1029100045F800F03BF8322000F041F800F02EF8C6
:10292000322000F03CF8002000F0D8F8102802D047
:102930004020BDE8F081104D04EB44067719A85DF6
:10294000797800F0E1F8962000F02BF8A85D00F00F
:10295000C5F80646962000F024F87878B04204D0F6
:1029600004EB440028448078E3E7641CE4B2042CC0
:10297000E2D30020DDE70000C43800080122402136
:102980000148FEF7F6B8000000180240002240217E
:102990000148FEF7EEB80000001802407047FDF74E
:1029A000DBBF70B54FF0E02300215C6900EBC00095
:1029B0009A69C50098699042FCD002D2A2EB00024D
:1029C00002E0A4EB0006324411440246A942F1D3CE
:1029D00070BD00001CB5044606226946032000F0C5
:1029E0006FF8BDF9000000EE100AF8EEC00A9FED86
:1029F0000D0A60EE800AC4ED000ABDF9020000EE87
:102A0000900AF8EEE00A60EE800AC4ED010ABDF912
:102A1000040000EE900AF8EEE00A20EE800A84ED51
:102A2000020A1CBD9A99993E7047000030B593B0D8
:102A300030216846FDF7FEFB14210CA8FDF7FAFBD8
:102A40001D480025016841F080510160006800F0D8
:102A5000805011901948016841F48041016000687C
:102A6000022400F4804011900120009000040190A5
:102A70008001CDE9064006200890A820CDE9090490
:102A800004200B906846FEF7A1FC08B172B6FEE781
:102A90000CA90F2081E831004FF4A0500F904FF4A3
:102AA0008050109005210CA8FEF7A4FB002801D04F
:102AB00072B6FEE713B030BD4038024000700040EF
:102AC0000EB50A238DE80E00024601231C210248A0
:102AD000FEF71EF90EBD00003C0100201FB50021CD
:102AE0008DF80C100A23012203A98DE80E0013466D
:102AF00002461C210348FEF70BF99DF80C0004B0B8
:102B000010BD00003C01002003B583B00A23012260
:102B100004A98DE80E00134602461C210248FEF768
:102B2000F3F905B000BD00003C01002010B50D4BCD
:102B300001200C46C3E90020002098601946204679
:102B4000FDF7E4FB08B1FDF7DEFB2046FDF742FD93
:102B500014212046FDF7ECFC2046FDF77DFC80B2F9
:102B600010BD00007004002010B50446D4E9041222
:102B7000FFF7DCFF00EE100AD4ED0A0A9FED091AF8
:102B8000B8EE400A20EE800ADFED050A70EE600A1A
:102B9000B3EE090A00EE810A84ED060A10BD0000BA
:102BA0005C8F423F0000C84310B50446D4E90012D0
:102BB000FFF7BCFF00EE100AD4ED0A0AB8EE400A97
:102BC00020EE800ADFED030A20EE200A84ED070ADA
:102BD00010BD00005D74214170B5002604463546E5
:102BE00008E000BFD4E902122046FFF79FFF6D1CEA
:102BF0000644ADB2608CA842F4D880B200EE100A50
:102C0000DFED070AB8EE400A60EE200A00EE106A17
:102C1000B8EE400A80EE801A84ED0A1A70BD0000FA
:102C20009A99993F0C499FED0D0A0A6802604A681B
:102C300042608A688260CA68C2600A690261496942
:102C4000416180ED0B0A4FF4FA719FED050A418452
:102C500080ED090A704700001C0000206740533ACD
:102C60009A99993F464910B54A6822F440324A6021
:102C70004A6843681A434A6001684A6822F48072CD
:102C80004A6001684A68036942EA03224A600168AF
:102C90004A6822F040724A6001684A6883681A43B1
:102CA0004A6001688A6822F400628A6001688A6862
:102CB000C3681A438A60816A6FF07062D14201680A
:102CC0008A6822F070628A6001688A680CD0836A20
:102CD0001A438A6001688A6822F040528A6001685B
:102CE0008A68C36A1A4301E022F040528A60016890
:102CF0008A6822F002028A6001688A68037E42EADA
:102D000043028A6090F82010002901684A680FD0B9
:102D100042F400624A6001684A6822F460424A60F4
:102D200001684A68174C436A04EB43331A4301E0D5
:102D300022F400624A600168CA6A22F47002CA6220
:102D40000168CA6A838B104C04EB03531A43CA62AE
:102D500001688A6822F400728A6001688A6890F8C3
:102D6000303042EA43228A6001688A6822F4806235
:102D70008A6001688A68406942EA8020886010BDE4
:102D80000023014000E0FFFF0000F0FF10B5014606
:102D900000208B698A6A4FF0C07453B1B3F5005FAD
:102DA00015D072B1012A0CD0022A0AD0032A09D107
:102DB00004E01AB1012A06D0022A03D1C96AC90166
:102DC00000D5012010BDC96AA142FAD010BD002A69
:102DD000F7D0012AF2D0022AF3D0032AF3D010BD93
:102DE00001681823CAB2103AB2FBF3F2054B6FF335
:102DF0000901032A9B5CC36500D9091D816508464A
:102E000070470000A43800082DE9F84F0446006818
:102E100089460B9D01689846174641F48061016020
:102E20002068016841F48071016000954FF0011B3A
:102E30000022594620460A9B00F0CFF84FF4007A52
:102E400040B120680068C00501D5C4F840A0032047
:102E5000BDE8F88F216809F0FE0008612B4628497B
:102E600020460A9A00F06CF9F0BB2068416980693D
:102E700000902A4620460A9900F009F940B1206CDA
:102E800004283AD12068016841F40071016034E0FF
:102E9000FEB2B8F1010F09D02168380A08612A464C
:102EA00020460A9900F0F3F80028E8D1206806616E
:102EB0002A4620460A9900F0EAF80028DFD1206867
:102EC000016841F480710160009500225946204656
:102ED0000A9B00F082F80028B3D1216809F0FF00B6
:102EE00040F00100086100E007E02B46044920465D
:102EF0000A9A00F025F90028AAD00120A8E70000CE
:102F0000020001002DE9F843044600680D46DDE9A2
:102F1000089701689846164641F4807101604B4657
:102F200000224FF001112046009700F056F848B1FA
:102F300020680068C00502D54FF4007020640320AB
:102F4000BDE8F883216805F0FE0008613B464A466B
:102F50001549204600F0F4F888B920684169806975
:102F600000903A464946204600F091F848B1206C5E
:102F7000042804D12068016841F400710160012037
:102F8000DEE7F5B2B8F1010F09D02168300A086117
:102F90003A464946204600F07AF80028E7D12068F2
:102FA00005610020CCE700000200010001684A69C9
:102FB000D24352050FD46FF480624A61002140F879
:102FC000301F202242738173026942F004020261C1
:102FD000017301207047002070472DE9F0471E461D
:102FE00090460D460446C1F30747DDF8209008E0FF
:102FF000701C06D0FDF7C2FDA0EB0900B0420FD84F
:1030000076B12068012F18D0806925EA00000004FD
:10301000000C14D000214145EAD00020BDE8F08723
:10302000002044F8300F20216173A073216941F022
:103030002001216120730120F0E74069E5E70121CB
:10304000E9E770B516460D4604460DE02046FFF749
:10305000ADFF08B1012070BD681C05D0FDF78EFDE5
:10306000801BA84207D835B120684069C04340079B
:10307000ECD4002070BD002044F8300F2021617393
:10308000A073216941F0200121612073E2E770B54E
:1030900016460D4604460DE02046FFF787FF08B1AF
:1030A000012070BD681C05D0FDF768FD801BA8429B
:1030B00007D835B120684069C0430006ECD4002031
:1030C00070BD002044F8300F20216173A073216986
:1030D00041F0200121612073E2E72DE9F041002554
:1030E00090460E460446202717E04069C043C006BC
:1030F0000CD454F8301B6FF01000486144F810599C
:103100006777A577206A2062257717E0FDF736FDFF
:10311000A0EB0800B04208D83EB120684169C9431D
:103120004906E2D40020BDE8F08144F8305F6773BF
:10313000A573206940F02000206125730120F2E78B
:103140002DE9F0479A4691460E46044600254FF079
:103150002008C1F3074725E020684069C0434005C7
:1031600014D42068016841F40071016021686FF493
:1031700080604861256384F83D8084F83E50206C6F
:1031800040F00400206484F83C501FE0B9F1FF3F98
:1031900008D0FDF7F3FCA0EB0A0149450CD8B9F1C2
:1031A000000F09D02068012F13D0806926EA0000A3
:1031B0000004000C0BD0CFE744F8305F84F80D809A
:1031C000A573206940F02000206125730120BDE82F
:1031D000F0874069EAE70000F0B5026A22F00102D8
:1031E0000262036A42688469124E24F073050C6817
:1031F0002C4323F002058B682B430D4DA84201D0D0
:10320000B04205D123F00807CB683B4323F0040309
:10321000A84201D0B04205D14D6922F44072154355
:103220008A692A4342608461496841630362F0BD50
:103230000000014000040140F0B5026A22F48072EF
:103240000262026A4368C46922F4007224F07305C2
:103250000C68124E2C438D6842EA05220E4DA8429E
:1032600001D0B04206D1CF6822F4006242EA0722C0
:1032700022F48062A84201D0B04207D14D6923F404
:10328000405343EA05138D6943EA05134360C46163
:103290004968C1630262F0BD0000014000040140C2
:1032A00030B5026A22F480520262046A4268C3693D
:1032B0000D6823F4E64343EA05238D6824F40054A3
:1032C00044EA0534084DA84202D0084DA84204D172
:1032D0004D6922F4804242EA85124260C361496826
:1032E0000164046230BD00000000014000040140A0
:1032F000826822F070020A4342F007018160704741
:1033000010B5036A046A24F001040462846924F09D
:10331000F00444EA021423F00A020A4384610262C0
:1033200010BD10B5036A23F0100303628369046AB9
:1033300023F4704343EA023224F0A00343EA01116C
:103340008261016210BD00002DE9F0410446006871
:103350000169E26821F44051114301612169A068CB
:10336000E26908436169114308432168CA6849F268
:103370000C639A430243CA6020684169A26921F440
:10338000407111434161E069192764253226B0F587
:10339000004F354A354920684FF0000806D0884272
:1033A00001D0904236D1FDF7CFFF35E0884201D001
:1033B000904202D1FDF7C8FF01E0FDF7B5FF61685B
:1033C0004A18A0FB070148EB0803FCF7FBFE014687
:1033D000B0FBF5F00201B1FBF5F06FF018035843B4
:1033E00001EB800006EBC000B0FBF5F000F0F80048
:1033F00002EB4002B1FBF5F0584301EB800006EB15
:10340000C000B0FBF5F000F00700216810448860B0
:10341000BDE8F081FDF788FF61688B0F8A00A0FB93
:103420000701FCF7CFFE0146B0FBF5F06FF0180284
:10343000504301EB800006EB0010B0FBF5F000F00C
:10344000F002B1FBF5F002EB0012B1FBF5F06FF00A
:103450001803584301EB800006EB0010B0FBF5F0B9
:1034600000F00F00D1E700000014014000100140FF
:1034700010B590F83A10222901D0022010BD8168C1
:10348000B1F5805F11D00169002901681FD049683A
:1034900001F07F03816A4A1C82620B70C18D491E54
:1034A0000904090CC18518D02BE00269816A002A41
:1034B0000268526805D0D2B20A80816A491C8162D2
:1034C000ECE7C2F308020A80816A891CF7E74A68C0
:1034D000816A4B1C83620A70E0E70168CA6822F0C7
:1034E0002002CA600168CA6822F48072CA6001685A
:1034F0004A6922F001024A61202180F83A10FEF761
:1035000045FE002010BD90F83910212901D002207D
:1035100070478168B1F5805F016A0BD04A1C026276
:10352000026809785160C18C491E0904090CC184E4
:103530000ED017E009880268C1F3080151600169E3
:103540000029016A02D0491C0162ECE7891CFBE7F3
:103550000168CA6822F08002CA600068C16841F050
:103560004001C160002070470168CA6822F490726F
:10357000CA6001684A6922F001024A61202180F88C
:103580003A10704710B5806B0021C185C184FEF7E9
:1035900062FC10BD0907090E002804DB00F1E020E1
:1035A00080F80014704700F00F0000F1E02080F870
:1035B000141D704710B5032404710173C0E904237E
:1035C00049001A445143816110BD02220271816099
:1035D000704710B50446D4E90801FEF7AFFBA16AB5
:1035E000206AFEF7ABFBE16A206ABDE81040FEF7F7
:1035F000A5BB000070B504460079FF2601285AD00B
:10360000022803D00025032834D056E0FDF7B6FA8F
:10361000014600222046A36800F0A2F800EE100A3E
:10362000A068B0EE001AF8EE400A410800EE101A49
:10363000F8EE401A9FED460AF4EEE01AF1EE10FAA9
:1036400001EE900AF8EE611A80EEA12A06DD62EE24
:10365000010A20EE800ABCEEC00A07E022EE011A41
:10366000F0EE400A41EE400ABCEEE00A10EE100A0D
:10367000207023E0FDF782FAE169401AA1698842CF
:1036800003D9FDF77BFAE06118E0FDF777FAE1690D
:103690002269411A207B4000504381420DD8FDF73A
:1036A0006DFAE169411A20694200B1FBF2F302FBB5
:1036B0001311814201D9267000E0257060782178CD
:1036C00010FB01F2234B1A80A078217810FB01F146
:1036D0005980E078257810FB05F09880636ACBB1BB
:1036E000042B1BD0082B236A1B681BD01A64A26A08
:1036F000D2B1042A1CD0082A226A12681CD0116494
:10370000E16AD9B104291DD00829216A09681DD0B0
:10371000086470BD236A1B685A63E8E7236A1B6864
:103720009A63E4E7DA63E2E7226A12685163E7E743
:10373000226A12689163E3E7D163E1E7216A0968CD
:10374000486370BD216A0968886370BDC86370BD35
:1037500000007F433400002041708270C3707047C6
:1037600008469A4206D2991A984201D803E0401AB4
:103770009842FCD87047904201D370470844904269
:10378000FCD3704704498968016208214162042121
:1037900081620021C16270473400002002E008C845
:1037A000121F08C1002AFAD170477047002001E0BB
:1037B00001C1121F002AFBD17047000010B5044858
:1037C000FFF7E0FF0248BDE810403030FFF72ABAAB
:1037D00040000020FDF77CFCFFF728F9FEF76CFDA8
:1037E000FEF73CFDFEF70CFEFEF73EFEFEF7E4FEA4
:1037F000FEF7D0FCFEF700FDFEF782FEFEF752FF5B
:10380000FEF78AFFFEF76AFFFEF7DAFD1E48FEF7B5
:1038100087F81E48FEF772F81D48FEF76FF81D483E
:10382000FEF76CF800211948FEF788FA00211948C4
:10383000FEF784FA04211748FEF780FA082115489C
:10384000FEF77CFA14480068C16841F01001C160BD
:1038500012480168CA6842F02002CA600068C16864
:1038600041F01001C160FFF74DF80D48FFF7B1FEC0
:10387000FF231A4619460A48FFF76EFF0848303002
:10388000FFF7AAF9FEE7000090010020D001002018
:10389000100200205002002090020020100300209F
:1038A0004000002000061016000610160000000060
:1038B00000000000010203040607080900000000E0
:1038C000010203040B080141090242C0030A0B0470
:1038D000F438000800000020400000009C37000879
:1038E000343900084000002040080000AC370008D0
:1038F000CDFEFFFF000000000000000000000000FF
:103900000100000010000000000000000024F4008E
:10391000F400002008000000AC00002011000000AE
:10392000AC000020100000000000000000000000BB
:043930001002002061
:040000050800018965
:00000001FF
